{
  "_format": "hh-sol-artifact-1",
  "contractName": "LotteryLogic",
  "sourceName": "contracts/LotteryLogic.sol",
  "abi": [
    {
      "inputs": [
        {
          "internalType": "address",
          "name": "_lotteryStorageAddress",
          "type": "address"
        }
      ],
      "stateMutability": "nonpayable",
      "type": "constructor"
    },
    {
      "anonymous": false,
      "inputs": [
        {
          "indexed": false,
          "internalType": "uint256",
          "name": "state",
          "type": "uint256"
        }
      ],
      "name": "generateNumbers",
      "type": "event"
    },
    {
      "anonymous": false,
      "inputs": [
        {
          "indexed": false,
          "internalType": "uint256[]",
          "name": "ticketNumbers",
          "type": "uint256[]"
        },
        {
          "indexed": false,
          "internalType": "address",
          "name": "owner",
          "type": "address"
        },
        {
          "indexed": false,
          "internalType": "uint256",
          "name": "creationDate",
          "type": "uint256"
        }
      ],
      "name": "newTicket",
      "type": "event"
    },
    {
      "anonymous": false,
      "inputs": [
        {
          "indexed": false,
          "internalType": "address",
          "name": "winner",
          "type": "address"
        },
        {
          "indexed": false,
          "internalType": "uint256",
          "name": "guessedNumbers",
          "type": "uint256"
        }
      ],
      "name": "newWinner",
      "type": "event"
    },
    {
      "inputs": [],
      "name": "VRFv2ConsumerAddress",
      "outputs": [
        {
          "internalType": "address",
          "name": "",
          "type": "address"
        }
      ],
      "stateMutability": "view",
      "type": "function"
    },
    {
      "inputs": [],
      "name": "allowTicketSubmitting",
      "outputs": [
        {
          "internalType": "bool",
          "name": "",
          "type": "bool"
        }
      ],
      "stateMutability": "view",
      "type": "function"
    },
    {
      "inputs": [],
      "name": "blocktime",
      "outputs": [
        {
          "internalType": "uint256",
          "name": "",
          "type": "uint256"
        }
      ],
      "stateMutability": "view",
      "type": "function"
    },
    {
      "inputs": [
        {
          "internalType": "uint256[]",
          "name": "_numbers",
          "type": "uint256[]"
        }
      ],
      "name": "buyTicket",
      "outputs": [],
      "stateMutability": "payable",
      "type": "function"
    },
    {
      "inputs": [],
      "name": "getWinningNumbers",
      "outputs": [
        {
          "internalType": "uint256[]",
          "name": "",
          "type": "uint256[]"
        }
      ],
      "stateMutability": "view",
      "type": "function"
    },
    {
      "inputs": [],
      "name": "requestNumbers",
      "outputs": [],
      "stateMutability": "nonpayable",
      "type": "function"
    },
    {
      "inputs": [],
      "name": "retrieveNewNumbers",
      "outputs": [],
      "stateMutability": "nonpayable",
      "type": "function"
    },
    {
      "inputs": [
        {
          "internalType": "uint256",
          "name": "_ticketId",
          "type": "uint256"
        }
      ],
      "name": "submitWinningTicket",
      "outputs": [],
      "stateMutability": "nonpayable",
      "type": "function"
    },
    {
      "inputs": [
        {
          "internalType": "uint256",
          "name": "",
          "type": "uint256"
        },
        {
          "internalType": "uint256",
          "name": "",
          "type": "uint256"
        }
      ],
      "name": "submittedWinningTickets",
      "outputs": [
        {
          "internalType": "bool",
          "name": "",
          "type": "bool"
        }
      ],
      "stateMutability": "view",
      "type": "function"
    }
  ],
  "bytecode": "0x60806040526040518060a00160405280600260ff168152602001600460ff168152602001600660ff168152602001600860ff168152602001600a60ff1681525060059060056200005192919062000204565b506000600660006101000a81548160ff0219169083151502179055503480156200007a57600080fd5b5060405162004016380380620040168339818101604052810190620000a09190620002f2565b61170f604051620000b1906200025b565b620000bd919062000385565b604051809103906000f080158015620000da573d6000803e3d6000fd5b506000806101000a81548173ffffffffffffffffffffffffffffffffffffffff021916908373ffffffffffffffffffffffffffffffffffffffff16021790555060008054906101000a900473ffffffffffffffffffffffffffffffffffffffff16600160006101000a81548173ffffffffffffffffffffffffffffffffffffffff021916908373ffffffffffffffffffffffffffffffffffffffff16021790555080600260006101000a81548173ffffffffffffffffffffffffffffffffffffffff021916908373ffffffffffffffffffffffffffffffffffffffff16021790555033600360006101000a81548173ffffffffffffffffffffffffffffffffffffffff021916908373ffffffffffffffffffffffffffffffffffffffff16021790555050620003a2565b82805482825590600052602060002090810192821562000248579160200282015b8281111562000247578251829060ff1690559160200191906001019062000225565b5b50905062000257919062000269565b5090565b610bb8806200345e83390190565b5b80821115620002845760008160009055506001016200026a565b5090565b600080fd5b600073ffffffffffffffffffffffffffffffffffffffff82169050919050565b6000620002ba826200028d565b9050919050565b620002cc81620002ad565b8114620002d857600080fd5b50565b600081519050620002ec81620002c1565b92915050565b6000602082840312156200030b576200030a62000288565b5b60006200031b84828501620002db565b91505092915050565b6000819050919050565b600067ffffffffffffffff82169050919050565b6000819050919050565b60006200036d62000367620003618462000324565b62000342565b6200032e565b9050919050565b6200037f816200034c565b82525050565b60006020820190506200039c600083018462000374565b92915050565b6130ac80620003b26000396000f3fe6080604052600436106100865760003560e01c8063555d294011610059578063555d294014610133578063716cac961461015e57806384350e1d1461017a578063a9b12c4c146101a5578063ad875aa6146101d057610086565b8063151a28711461008b5780632aa6f890146100b45780633a9ac275146100df5780634a1db02b146100f6575b600080fd5b34801561009757600080fd5b506100b260048036038101906100ad9190612003565b6101e7565b005b3480156100c057600080fd5b506100c9610e17565b6040516100d6919061204b565b60405180910390f35b3480156100eb57600080fd5b506100f4610e2a565b005b34801561010257600080fd5b5061011d60048036038101906101189190612066565b611046565b60405161012a919061204b565b60405180910390f35b34801561013f57600080fd5b50610148611075565b60405161015591906120e7565b60405180910390f35b6101786004803603810190610173919061225b565b611099565b005b34801561018657600080fd5b5061018f611759565b60405161019c9190612362565b60405180910390f35b3480156101b157600080fd5b506101ba6117b1565b6040516101c79190612393565b60405180910390f35b3480156101dc57600080fd5b506101e56117b7565b005b6002600762015180426101fa919061240c565b610204919061243d565b148061022a575060036007620151804261021e919061240c565b610228919061243d565b145b610269576040517f08c379a0000000000000000000000000000000000000000000000000000000008152600401610260906124f1565b60405180910390fd5b6000151560076000600260009054906101000a900473ffffffffffffffffffffffffffffffffffffffff1673ffffffffffffffffffffffffffffffffffffffff1663127f0b3f6040518163ffffffff1660e01b8152600401602060405180830381865afa1580156102de573d6000803e3d6000fd5b505050506040513d601f19601f820116820180604052508101906103029190612526565b8152602001908152602001600020600083815260200190815260200160002060009054906101000a900460ff16151514610371576040517f08c379a00000000000000000000000000000000000000000000000000000000081526004016103689061259f565b60405180910390fd5b600360149054906101000a900460ff166103c0576040517f08c379a00000000000000000000000000000000000000000000000000000000081526004016103b790612631565b60405180910390fd5b6000600260009054906101000a900473ffffffffffffffffffffffffffffffffffffffff1673ffffffffffffffffffffffffffffffffffffffff1663e84b9b99600260009054906101000a900473ffffffffffffffffffffffffffffffffffffffff1673ffffffffffffffffffffffffffffffffffffffff1663127f0b3f6040518163ffffffff1660e01b8152600401602060405180830381865afa15801561046d573d6000803e3d6000fd5b505050506040513d601f19601f820116820180604052508101906104919190612526565b846040518363ffffffff1660e01b81526004016104af929190612651565b600060405180830381865afa1580156104cc573d6000803e3d6000fd5b505050506040513d6000823e3d601f19601f820116820180604052508101906104f59190612711565b90506000805b825181101561058a5760005b600581101561057657600581815481106105245761052361275a565b5b90600052602060002001548483815181106105425761054161275a565b5b6020026020010151141561056357828061055b90612789565b935050610576565b808061056e90612789565b915050610507565b50808061058290612789565b9150506104fb565b50600481141561096857600260009054906101000a900473ffffffffffffffffffffffffffffffffffffffff1673ffffffffffffffffffffffffffffffffffffffff1663e77eded3600260009054906101000a900473ffffffffffffffffffffffffffffffffffffffff1673ffffffffffffffffffffffffffffffffffffffff1663127f0b3f6040518163ffffffff1660e01b8152600401602060405180830381865afa15801561063f573d6000803e3d6000fd5b505050506040513d601f19601f820116820180604052508101906106639190612526565b600260009054906101000a900473ffffffffffffffffffffffffffffffffffffffff1673ffffffffffffffffffffffffffffffffffffffff1663b7821c736040518163ffffffff1660e01b8152600401602060405180830381865afa1580156106d0573d6000803e3d6000fd5b505050506040513d601f19601f820116820180604052508101906106f49190612526565b600260009054906101000a900473ffffffffffffffffffffffffffffffffffffffff1673ffffffffffffffffffffffffffffffffffffffff1663a426e4c8600260009054906101000a900473ffffffffffffffffffffffffffffffffffffffff1673ffffffffffffffffffffffffffffffffffffffff1663127f0b3f6040518163ffffffff1660e01b8152600401602060405180830381865afa15801561079f573d6000803e3d6000fd5b505050506040513d601f19601f820116820180604052508101906107c39190612526565b896040518363ffffffff1660e01b81526004016107e1929190612651565b600060405180830381865afa1580156107fe573d6000803e3d6000fd5b505050506040513d6000823e3d601f19601f820116820180604052508101906108279190612888565b602001516040518463ffffffff1660e01b8152600401610849939291906128d1565b600060405180830381600087803b15801561086357600080fd5b505af1158015610877573d6000803e3d6000fd5b50505050600260009054906101000a900473ffffffffffffffffffffffffffffffffffffffff1673ffffffffffffffffffffffffffffffffffffffff1663ad00b0336040518163ffffffff1660e01b8152600401600060405180830381600087803b1580156108e557600080fd5b505af11580156108f9573d6000803e3d6000fd5b505050507fe996987d056eca0e2ed60cc6fd77731e38c3a90676a4b93a436854cabbdac12f33600460405161092f92919061294d565b60405180910390a1600660009054906101000a900460ff16610967576001600660006101000a81548160ff0219169083151502179055505b5b6005811415610d4557600260009054906101000a900473ffffffffffffffffffffffffffffffffffffffff1673ffffffffffffffffffffffffffffffffffffffff1663818db388600260009054906101000a900473ffffffffffffffffffffffffffffffffffffffff1673ffffffffffffffffffffffffffffffffffffffff1663127f0b3f6040518163ffffffff1660e01b8152600401602060405180830381865afa158015610a1c573d6000803e3d6000fd5b505050506040513d601f19601f82011682018060405250810190610a409190612526565b600260009054906101000a900473ffffffffffffffffffffffffffffffffffffffff1673ffffffffffffffffffffffffffffffffffffffff1663b7821c736040518163ffffffff1660e01b8152600401602060405180830381865afa158015610aad573d6000803e3d6000fd5b505050506040513d601f19601f82011682018060405250810190610ad19190612526565b600260009054906101000a900473ffffffffffffffffffffffffffffffffffffffff1673ffffffffffffffffffffffffffffffffffffffff1663a426e4c8600260009054906101000a900473ffffffffffffffffffffffffffffffffffffffff1673ffffffffffffffffffffffffffffffffffffffff1663127f0b3f6040518163ffffffff1660e01b8152600401602060405180830381865afa158015610b7c573d6000803e3d6000fd5b505050506040513d601f19601f82011682018060405250810190610ba09190612526565b896040518363ffffffff1660e01b8152600401610bbe929190612651565b600060405180830381865afa158015610bdb573d6000803e3d6000fd5b505050506040513d6000823e3d601f19601f82011682018060405250810190610c049190612888565b602001516040518463ffffffff1660e01b8152600401610c26939291906128d1565b600060405180830381600087803b158015610c4057600080fd5b505af1158015610c54573d6000803e3d6000fd5b50505050600260009054906101000a900473ffffffffffffffffffffffffffffffffffffffff1673ffffffffffffffffffffffffffffffffffffffff16631801e1166040518163ffffffff1660e01b8152600401600060405180830381600087803b158015610cc257600080fd5b505af1158015610cd6573d6000803e3d6000fd5b505050507fe996987d056eca0e2ed60cc6fd77731e38c3a90676a4b93a436854cabbdac12f336005604051610d0c9291906129b1565b60405180910390a1600660009054906101000a900460ff16610d44576001600660006101000a81548160ff0219169083151502179055505b5b600160076000600260009054906101000a900473ffffffffffffffffffffffffffffffffffffffff1673ffffffffffffffffffffffffffffffffffffffff1663127f0b3f6040518163ffffffff1660e01b8152600401602060405180830381865afa158015610db8573d6000803e3d6000fd5b505050506040513d601f19601f82011682018060405250810190610ddc9190612526565b8152602001908152602001600020600085815260200190815260200160002060006101000a81548160ff021916908315150217905550505050565b600360149054906101000a900460ff1681565b607860045442610e3a91906129da565b118015610e555750610e1060045442610e5391906129da565b105b610e94576040517f08c379a0000000000000000000000000000000000000000000000000000000008152600401610e8b90612a80565b60405180910390fd5b6000600160009054906101000a900473ffffffffffffffffffffffffffffffffffffffff1673ffffffffffffffffffffffffffffffffffffffff1663e11381b26040518163ffffffff1660e01b8152600401600060405180830381865afa158015610f03573d6000803e3d6000fd5b505050506040513d6000823e3d601f19601f82011682018060405250810190610f2c9190612711565b905060005b6005811015610fef5760006032838381518110610f5157610f5061275a565b5b6020026020010151610f63919061243d565b1415610f9257603260058281548110610f7f57610f7e61275a565b5b9060005260206000200181905550610fdc565b6032828281518110610fa757610fa661275a565b5b6020026020010151610fb9919061243d565b60058281548110610fcd57610fcc61275a565b5b90600052602060002001819055505b8080610fe790612789565b915050610f31565b506001600360146101000a81548160ff0219169083151502179055507f7a1d5543c1fc3144421adadb788eae398e84abdcddfa9ef9efc0e8d052b0c294600260405161103b9190612adb565b60405180910390a150565b60076020528160005260406000206020528060005260406000206000915091509054906101000a900460ff1681565b60008054906101000a900473ffffffffffffffffffffffffffffffffffffffff1681565b60058151101580156110ad5750600a815111155b6110ec576040517f08c379a00000000000000000000000000000000000000000000000000000000081526004016110e390612b68565b60405180910390fd5b66071afd498d000060026004835161110491906129da565b61110e9190612cc8565b6111189190612d13565b3414611159576040517f08c379a000000000000000000000000000000000000000000000000000000000815260040161115090612ddf565b60405180910390fd5b60026007620151804261116c919061240c565b611176919061243d565b1415801561119f5750600360076201518042611192919061240c565b61119c919061243d565b14155b6111de576040517f08c379a00000000000000000000000000000000000000000000000000000000081526004016111d590612e97565b60405180910390fd5b600360149054906101000a900460ff16156115ff57600660009054906101000a900460ff1615611330576112106118fc565b600260009054906101000a900473ffffffffffffffffffffffffffffffffffffffff1673ffffffffffffffffffffffffffffffffffffffff16633b8e3c906040518163ffffffff1660e01b8152600401600060405180830381600087803b15801561127a57600080fd5b505af115801561128e573d6000803e3d6000fd5b50505050600260009054906101000a900473ffffffffffffffffffffffffffffffffffffffff1673ffffffffffffffffffffffffffffffffffffffff1663a32605926040518163ffffffff1660e01b8152600401600060405180830381600087803b1580156112fc57600080fd5b505af1158015611310573d6000803e3d6000fd5b505050506000600660006101000a81548160ff0219169083151502179055505b600260009054906101000a900473ffffffffffffffffffffffffffffffffffffffff1673ffffffffffffffffffffffffffffffffffffffff16632457219c600260009054906101000a900473ffffffffffffffffffffffffffffffffffffffff1673ffffffffffffffffffffffffffffffffffffffff1663127f0b3f6040518163ffffffff1660e01b8152600401602060405180830381865afa1580156113db573d6000803e3d6000fd5b505050506040513d601f19601f820116820180604052508101906113ff9190612526565b600260009054906101000a900473ffffffffffffffffffffffffffffffffffffffff1673ffffffffffffffffffffffffffffffffffffffff1663cfbd900f6040518163ffffffff1660e01b8152600401602060405180830381865afa15801561146c573d6000803e3d6000fd5b505050506040513d601f19601f820116820180604052508101906114909190612526565b6040518363ffffffff1660e01b81526004016114ad929190612651565b600060405180830381600087803b1580156114c757600080fd5b505af11580156114db573d6000803e3d6000fd5b50505050600260009054906101000a900473ffffffffffffffffffffffffffffffffffffffff1673ffffffffffffffffffffffffffffffffffffffff1663489d97d86040518163ffffffff1660e01b8152600401600060405180830381600087803b15801561154957600080fd5b505af115801561155d573d6000803e3d6000fd5b50505050600260009054906101000a900473ffffffffffffffffffffffffffffffffffffffff1673ffffffffffffffffffffffffffffffffffffffff1663a411ef696040518163ffffffff1660e01b8152600401600060405180830381600087803b1580156115cb57600080fd5b505af11580156115df573d6000803e3d6000fd5b505050506000600360146101000a81548160ff0219169083151502179055505b61160881611e68565b600260009054906101000a900473ffffffffffffffffffffffffffffffffffffffff1673ffffffffffffffffffffffffffffffffffffffff16632d2d45788233426040518463ffffffff1660e01b815260040161166793929190612eb7565b600060405180830381600087803b15801561168157600080fd5b505af1158015611695573d6000803e3d6000fd5b50505050600260009054906101000a900473ffffffffffffffffffffffffffffffffffffffff1673ffffffffffffffffffffffffffffffffffffffff166357d32e2c6040518163ffffffff1660e01b8152600401600060405180830381600087803b15801561170357600080fd5b505af1158015611717573d6000803e3d6000fd5b505050507f3f3ce808a956238f6a4663d0dd2685bfc2557b4399f220d215ce17153f9aff2781334260405161174e93929190612eb7565b60405180910390a150565b606060058054806020026020016040519081016040528092919081815260200182805480156117a757602002820191906000526020600020905b815481526020019060010190808311611793575b5050505050905090565b60045481565b6002600762015180426117ca919061240c565b6117d4919061243d565b14806117fa57506003600762015180426117ee919061240c565b6117f8919061243d565b145b611839576040517f08c379a000000000000000000000000000000000000000000000000000000000815260040161183090612f67565b60405180910390fd5b600160009054906101000a900473ffffffffffffffffffffffffffffffffffffffff1673ffffffffffffffffffffffffffffffffffffffff1663e0c862896040518163ffffffff1660e01b8152600401600060405180830381600087803b1580156118a357600080fd5b505af11580156118b7573d6000803e3d6000fd5b50505050426004819055507f7a1d5543c1fc3144421adadb788eae398e84abdcddfa9ef9efc0e8d052b0c29460016040516118f29190612fc2565b60405180910390a1565b60006402540be4004761190f91906129da565b90506000606482611920919061240c565b9050600360009054906101000a900473ffffffffffffffffffffffffffffffffffffffff1673ffffffffffffffffffffffffffffffffffffffff166108fc829081150290604051600060405180830381858888f1935050505015801561198a573d6000803e3d6000fd5b50808261199791906129da565b91506000600260009054906101000a900473ffffffffffffffffffffffffffffffffffffffff1673ffffffffffffffffffffffffffffffffffffffff1663b7821c736040518163ffffffff1660e01b8152600401602060405180830381865afa158015611a08573d6000803e3d6000fd5b505050506040513d601f19601f82011682018060405250810190611a2c9190612526565b90506000811115611bf4576000816014606486611a49919061240c565b611a539190612d13565b611a5d919061240c565b905060005b82811015611bf157600260009054906101000a900473ffffffffffffffffffffffffffffffffffffffff1673ffffffffffffffffffffffffffffffffffffffff1663aad3623a600260009054906101000a900473ffffffffffffffffffffffffffffffffffffffff1673ffffffffffffffffffffffffffffffffffffffff1663127f0b3f6040518163ffffffff1660e01b8152600401602060405180830381865afa158015611b15573d6000803e3d6000fd5b505050506040513d601f19601f82011682018060405250810190611b399190612526565b836040518363ffffffff1660e01b8152600401611b57929190612651565b602060405180830381865afa158015611b74573d6000803e3d6000fd5b505050506040513d601f19601f82011682018060405250810190611b989190612fdd565b73ffffffffffffffffffffffffffffffffffffffff166108fc839081150290604051600060405180830381858888f19350505050158015611bdd573d6000803e3d6000fd5b508080611be990612789565b915050611a62565b50505b6000600260009054906101000a900473ffffffffffffffffffffffffffffffffffffffff1673ffffffffffffffffffffffffffffffffffffffff16635781880b6040518163ffffffff1660e01b8152600401602060405180830381865afa158015611c63573d6000803e3d6000fd5b505050506040513d601f19601f82011682018060405250810190611c879190612526565b90506000811115611e47576000816402540be40047611ca691906129da565b611cb0919061240c565b905060005b82811015611e4457600260009054906101000a900473ffffffffffffffffffffffffffffffffffffffff1673ffffffffffffffffffffffffffffffffffffffff166363e182bd600260009054906101000a900473ffffffffffffffffffffffffffffffffffffffff1673ffffffffffffffffffffffffffffffffffffffff1663127f0b3f6040518163ffffffff1660e01b8152600401602060405180830381865afa158015611d68573d6000803e3d6000fd5b505050506040513d601f19601f82011682018060405250810190611d8c9190612526565b836040518363ffffffff1660e01b8152600401611daa929190612651565b602060405180830381865afa158015611dc7573d6000803e3d6000fd5b505050506040513d601f19601f82011682018060405250810190611deb9190612fdd565b73ffffffffffffffffffffffffffffffffffffffff166108fc839081150290604051600060405180830381858888f19350505050158015611e30573d6000803e3d6000fd5b508080611e3c90612789565b915050611cb5565b50505b6000600660006101000a81548160ff02191690831515021790555050505050565b60005b8151811015611f4f576001151560086000848481518110611e8f57611e8e61275a565b5b6020026020010151815260200190815260200160002060009054906101000a900460ff1615151415611ef6576040517f08c379a0000000000000000000000000000000000000000000000000000000008152600401611eed90613056565b60405180910390fd5b600160086000848481518110611f0f57611f0e61275a565b5b6020026020010151815260200190815260200160002060006101000a81548160ff0219169083151502179055508080611f4790612789565b915050611e6b565b5060005b8151811015611fb557600060086000848481518110611f7557611f7461275a565b5b6020026020010151815260200190815260200160002060006101000a81548160ff0219169083151502179055508080611fad90612789565b915050611f53565b5050565b6000604051905090565b600080fd5b600080fd5b6000819050919050565b611fe081611fcd565b8114611feb57600080fd5b50565b600081359050611ffd81611fd7565b92915050565b60006020828403121561201957612018611fc3565b5b600061202784828501611fee565b91505092915050565b60008115159050919050565b61204581612030565b82525050565b6000602082019050612060600083018461203c565b92915050565b6000806040838503121561207d5761207c611fc3565b5b600061208b85828601611fee565b925050602061209c85828601611fee565b9150509250929050565b600073ffffffffffffffffffffffffffffffffffffffff82169050919050565b60006120d1826120a6565b9050919050565b6120e1816120c6565b82525050565b60006020820190506120fc60008301846120d8565b92915050565b600080fd5b6000601f19601f8301169050919050565b7f4e487b7100000000000000000000000000000000000000000000000000000000600052604160045260246000fd5b61215082612107565b810181811067ffffffffffffffff8211171561216f5761216e612118565b5b80604052505050565b6000612182611fb9565b905061218e8282612147565b919050565b600067ffffffffffffffff8211156121ae576121ad612118565b5b602082029050602081019050919050565b600080fd5b60006121d76121d284612193565b612178565b905080838252602082019050602084028301858111156121fa576121f96121bf565b5b835b81811015612223578061220f8882611fee565b8452602084019350506020810190506121fc565b5050509392505050565b600082601f83011261224257612241612102565b5b81356122528482602086016121c4565b91505092915050565b60006020828403121561227157612270611fc3565b5b600082013567ffffffffffffffff81111561228f5761228e611fc8565b5b61229b8482850161222d565b91505092915050565b600081519050919050565b600082825260208201905092915050565b6000819050602082019050919050565b6122d981611fcd565b82525050565b60006122eb83836122d0565b60208301905092915050565b6000602082019050919050565b600061230f826122a4565b61231981856122af565b9350612324836122c0565b8060005b8381101561235557815161233c88826122df565b9750612347836122f7565b925050600181019050612328565b5085935050505092915050565b6000602082019050818103600083015261237c8184612304565b905092915050565b61238d81611fcd565b82525050565b60006020820190506123a86000830184612384565b92915050565b7f4e487b7100000000000000000000000000000000000000000000000000000000600052601260045260246000fd5b7f4e487b7100000000000000000000000000000000000000000000000000000000600052601160045260246000fd5b600061241782611fcd565b915061242283611fcd565b925082612432576124316123ae565b5b828204905092915050565b600061244882611fcd565b915061245383611fcd565b925082612463576124626123ae565b5b828206905092915050565b600082825260208201905092915050565b7f57696e6e696e67207469636b6574732063616e206e6f74206265207375626d6960008201527f74746564207269676874206e6f772e0000000000000000000000000000000000602082015250565b60006124db602f8361246e565b91506124e68261247f565b604082019050919050565b6000602082019050818103600083015261250a816124ce565b9050919050565b60008151905061252081611fd7565b92915050565b60006020828403121561253c5761253b611fc3565b5b600061254a84828501612511565b91505092915050565b7f5469636b657420616c7265616479207375626d69747465642e00000000000000600082015250565b600061258960198361246e565b915061259482612553565b602082019050919050565b600060208201905081810360008301526125b88161257c565b9050919050565b7f43616e6e6f74207375626d6974207469636b657473206265666f72652067656e60008201527f65726174696e67206e65772077696e696e67206e756d626572732e0000000000602082015250565b600061261b603b8361246e565b9150612626826125bf565b604082019050919050565b6000602082019050818103600083015261264a8161260e565b9050919050565b60006040820190506126666000830185612384565b6126736020830184612384565b9392505050565b600061268d61268884612193565b612178565b905080838252602082019050602084028301858111156126b0576126af6121bf565b5b835b818110156126d957806126c58882612511565b8452602084019350506020810190506126b2565b5050509392505050565b600082601f8301126126f8576126f7612102565b5b815161270884826020860161267a565b91505092915050565b60006020828403121561272757612726611fc3565b5b600082015167ffffffffffffffff81111561274557612744611fc8565b5b612751848285016126e3565b91505092915050565b7f4e487b7100000000000000000000000000000000000000000000000000000000600052603260045260246000fd5b600061279482611fcd565b91507fffffffffffffffffffffffffffffffffffffffffffffffffffffffffffffffff8214156127c7576127c66123dd565b5b600182019050919050565b600080fd5b600080fd5b6127e5816120c6565b81146127f057600080fd5b50565b600081519050612802816127dc565b92915050565b60006060828403121561281e5761281d6127d2565b5b6128286060612178565b9050600082015167ffffffffffffffff811115612848576128476127d7565b5b612854848285016126e3565b6000830152506020612868848285016127f3565b602083015250604061287c84828501612511565b60408301525092915050565b60006020828403121561289e5761289d611fc3565b5b600082015167ffffffffffffffff8111156128bc576128bb611fc8565b5b6128c884828501612808565b91505092915050565b60006060820190506128e66000830186612384565b6128f36020830185612384565b61290060408301846120d8565b949350505050565b6000819050919050565b6000819050919050565b600061293761293261292d84612908565b612912565b611fcd565b9050919050565b6129478161291c565b82525050565b600060408201905061296260008301856120d8565b61296f602083018461293e565b9392505050565b6000819050919050565b600061299b61299661299184612976565b612912565b611fcd565b9050919050565b6129ab81612980565b82525050565b60006040820190506129c660008301856120d8565b6129d360208301846129a2565b9392505050565b60006129e582611fcd565b91506129f083611fcd565b925082821015612a0357612a026123dd565b5b828203905092915050565b7f506c6561736520776169742061206c6974746c6520626974206d6f726520626560008201527f666f7265206163636573696e6720746865206e6577206e756d626572732e0000602082015250565b6000612a6a603e8361246e565b9150612a7582612a0e565b604082019050919050565b60006020820190508181036000830152612a9981612a5d565b9050919050565b6000819050919050565b6000612ac5612ac0612abb84612aa0565b612912565b611fcd565b9050919050565b612ad581612aaa565b82525050565b6000602082019050612af06000830184612acc565b92915050565b7f4d696e696d756d204e756d6265727320616c6c6f7765643a20352c204d61786960008201527f6d756d204e756d6265727320616c6c6f7765643a2031302e0000000000000000602082015250565b6000612b5260388361246e565b9150612b5d82612af6565b604082019050919050565b60006020820190508181036000830152612b8181612b45565b9050919050565b60008160011c9050919050565b6000808291508390505b6001851115612bdf57808604811115612bbb57612bba6123dd565b5b6001851615612bca5780820291505b8081029050612bd885612b88565b9450612b9f565b94509492505050565b600082612bf85760019050612cb4565b81612c065760009050612cb4565b8160018114612c1c5760028114612c2657612c55565b6001915050612cb4565b60ff841115612c3857612c376123dd565b5b8360020a915084821115612c4f57612c4e6123dd565b5b50612cb4565b5060208310610133831016604e8410600b8410161715612c8a5782820a905083811115612c8557612c846123dd565b5b612cb4565b612c978484846001612b95565b92509050818404811115612cae57612cad6123dd565b5b81810290505b9392505050565b600060ff82169050919050565b6000612cd382611fcd565b9150612cde83612cbb565b9250612d0b7fffffffffffffffffffffffffffffffffffffffffffffffffffffffffffffffff8484612be8565b905092915050565b6000612d1e82611fcd565b9150612d2983611fcd565b9250817fffffffffffffffffffffffffffffffffffffffffffffffffffffffffffffffff0483118215151615612d6257612d616123dd565b5b828202905092915050565b7f6d73672e76616c756520646f65736e2774206d61746368207469636b6574207060008201527f726963652e000000000000000000000000000000000000000000000000000000602082015250565b6000612dc960258361246e565b9150612dd482612d6d565b604082019050919050565b60006020820190508181036000830152612df881612dbc565b9050919050565b7f5469636b6574732063616e206e6f7420626520627579676874207768696c652060008201527f746865206c6f747465727920697320696e20636c61696d20726577617264732060208201527f73746174652e0000000000000000000000000000000000000000000000000000604082015250565b6000612e8160468361246e565b9150612e8c82612dff565b606082019050919050565b60006020820190508181036000830152612eb081612e74565b9050919050565b60006060820190508181036000830152612ed18186612304565b9050612ee060208301856120d8565b612eed6040830184612384565b949350505050565b7f596f752063616e6e6f742072657175657374206e6577206e756d62657273207260008201527f69676874206e6f772e0000000000000000000000000000000000000000000000602082015250565b6000612f5160298361246e565b9150612f5c82612ef5565b604082019050919050565b60006020820190508181036000830152612f8081612f44565b9050919050565b6000819050919050565b6000612fac612fa7612fa284612f87565b612912565b611fcd565b9050919050565b612fbc81612f91565b82525050565b6000602082019050612fd76000830184612fb3565b92915050565b600060208284031215612ff357612ff2611fc3565b5b6000613001848285016127f3565b91505092915050565b7f4475626c696361746564204e756d626572730000000000000000000000000000600082015250565b600061304060128361246e565b915061304b8261300a565b602082019050919050565b6000602082019050818103600083015261306f81613033565b905091905056fea26469706673582212204a02dc43020d3077b77754cad396318e9dfa028c65fd1c9649ab6e1b530835b164736f6c634300080a003360a0604052732ca8e0c643bde4c2e08ab1fa0da3401adad7734d600160006101000a81548173ffffffffffffffffffffffffffffffffffffffff021916908373ffffffffffffffffffffffffffffffffffffffff1602179055507f79d3d8832d904592c0bf9818b621522c988bb8b0c05cdc3b15aea1b6e8db0c1560001b600255620249f0600360006101000a81548163ffffffff021916908363ffffffff16021790555060038060046101000a81548161ffff021916908361ffff1602179055506005600360066101000a81548163ffffffff021916908363ffffffff1602179055503480156100ef57600080fd5b50604051610bb8380380610bb883398181016040528101906101119190610280565b600160009054906101000a900473ffffffffffffffffffffffffffffffffffffffff168073ffffffffffffffffffffffffffffffffffffffff1660808173ffffffffffffffffffffffffffffffffffffffff168152505050600160009054906101000a900473ffffffffffffffffffffffffffffffffffffffff166000806101000a81548173ffffffffffffffffffffffffffffffffffffffff021916908373ffffffffffffffffffffffffffffffffffffffff16021790555033600660006101000a81548173ffffffffffffffffffffffffffffffffffffffff021916908373ffffffffffffffffffffffffffffffffffffffff16021790555080600060146101000a81548167ffffffffffffffff021916908367ffffffffffffffff160217905550506102ad565b600080fd5b600067ffffffffffffffff82169050919050565b61025d81610240565b811461026857600080fd5b50565b60008151905061027a81610254565b92915050565b6000602082840312156102965761029561023b565b5b60006102a48482850161026b565b91505092915050565b6080516108ea6102ce6000396000818160f0015261014401526108ea6000f3fe608060405234801561001057600080fd5b50600436106100575760003560e01c80631fe543e31461005c578063e0c8628914610078578063e11381b214610082578063e89e106a146100a0578063f6eaffc8146100be575b600080fd5b610076600480360381019061007191906105aa565b6100ee565b005b6100806101ae565b005b61008a610300565b60405161009791906106c4565b60405180910390f35b6100a8610358565b6040516100b591906106f5565b60405180910390f35b6100d860048036038101906100d39190610710565b61035e565b6040516100e591906106f5565b60405180910390f35b7f000000000000000000000000000000000000000000000000000000000000000073ffffffffffffffffffffffffffffffffffffffff163373ffffffffffffffffffffffffffffffffffffffff16146101a057337f00000000000000000000000000000000000000000000000000000000000000006040517f1cf993f400000000000000000000000000000000000000000000000000000000815260040161019792919061077e565b60405180910390fd5b6101aa8282610382565b5050565b600660009054906101000a900473ffffffffffffffffffffffffffffffffffffffff1673ffffffffffffffffffffffffffffffffffffffff163373ffffffffffffffffffffffffffffffffffffffff161461020857600080fd5b60008054906101000a900473ffffffffffffffffffffffffffffffffffffffff1673ffffffffffffffffffffffffffffffffffffffff16635d3b1d30600254600060149054906101000a900467ffffffffffffffff16600360049054906101000a900461ffff16600360009054906101000a900463ffffffff16600360069054906101000a900463ffffffff166040518663ffffffff1660e01b81526004016102b595949392919061081f565b6020604051808303816000875af11580156102d4573d6000803e3d6000fd5b505050506040513d601f19601f820116820180604052508101906102f89190610887565b600581905550565b6060600480548060200260200160405190810160405280929190818152602001828054801561034e57602002820191906000526020600020905b81548152602001906001019080831161033a575b5050505050905090565b60055481565b6004818154811061036e57600080fd5b906000526020600020016000915090505481565b806004908051906020019061039892919061039d565b505050565b8280548282559060005260206000209081019282156103d9579160200282015b828111156103d85782518255916020019190600101906103bd565b5b5090506103e691906103ea565b5090565b5b808211156104035760008160009055506001016103eb565b5090565b6000604051905090565b600080fd5b600080fd5b6000819050919050565b61042e8161041b565b811461043957600080fd5b50565b60008135905061044b81610425565b92915050565b600080fd5b6000601f19601f8301169050919050565b7f4e487b7100000000000000000000000000000000000000000000000000000000600052604160045260246000fd5b61049f82610456565b810181811067ffffffffffffffff821117156104be576104bd610467565b5b80604052505050565b60006104d1610407565b90506104dd8282610496565b919050565b600067ffffffffffffffff8211156104fd576104fc610467565b5b602082029050602081019050919050565b600080fd5b6000610526610521846104e2565b6104c7565b905080838252602082019050602084028301858111156105495761054861050e565b5b835b81811015610572578061055e888261043c565b84526020840193505060208101905061054b565b5050509392505050565b600082601f83011261059157610590610451565b5b81356105a1848260208601610513565b91505092915050565b600080604083850312156105c1576105c0610411565b5b60006105cf8582860161043c565b925050602083013567ffffffffffffffff8111156105f0576105ef610416565b5b6105fc8582860161057c565b9150509250929050565b600081519050919050565b600082825260208201905092915050565b6000819050602082019050919050565b61063b8161041b565b82525050565b600061064d8383610632565b60208301905092915050565b6000602082019050919050565b600061067182610606565b61067b8185610611565b935061068683610622565b8060005b838110156106b757815161069e8882610641565b97506106a983610659565b92505060018101905061068a565b5085935050505092915050565b600060208201905081810360008301526106de8184610666565b905092915050565b6106ef8161041b565b82525050565b600060208201905061070a60008301846106e6565b92915050565b60006020828403121561072657610725610411565b5b60006107348482850161043c565b91505092915050565b600073ffffffffffffffffffffffffffffffffffffffff82169050919050565b60006107688261073d565b9050919050565b6107788161075d565b82525050565b6000604082019050610793600083018561076f565b6107a0602083018461076f565b9392505050565b6000819050919050565b6107ba816107a7565b82525050565b600067ffffffffffffffff82169050919050565b6107dd816107c0565b82525050565b600061ffff82169050919050565b6107fa816107e3565b82525050565b600063ffffffff82169050919050565b61081981610800565b82525050565b600060a08201905061083460008301886107b1565b61084160208301876107d4565b61084e60408301866107f1565b61085b6060830185610810565b6108686080830184610810565b9695505050505050565b60008151905061088181610425565b92915050565b60006020828403121561089d5761089c610411565b5b60006108ab84828501610872565b9150509291505056fea26469706673582212201106ba74b9b7ff33a23f6f5d5f7937cd6b43ba2837a64bfd3ca10d37da8dc1a264736f6c634300080a0033",
  "linkReferences": {},
  "deployedLinkReferences": {}
}