{
  "_format": "hh-sol-artifact-1",
  "contractName": "Lottery",
  "sourceName": "contracts/Lottery.sol",
  "abi": [
    {
      "inputs": [],
      "stateMutability": "nonpayable",
      "type": "constructor"
    },
    {
      "inputs": [
        {
          "internalType": "uint256[]",
          "name": "_numbers",
          "type": "uint256[]"
        }
      ],
      "name": "buyTicket",
      "outputs": [],
      "stateMutability": "payable",
      "type": "function"
    },
    {
      "inputs": [
        {
          "internalType": "uint256",
          "name": "",
          "type": "uint256"
        },
        {
          "internalType": "uint256",
          "name": "",
          "type": "uint256"
        }
      ],
      "name": "fiveNumberWinners",
      "outputs": [
        {
          "internalType": "address",
          "name": "",
          "type": "address"
        }
      ],
      "stateMutability": "view",
      "type": "function"
    },
    {
      "inputs": [],
      "name": "fiveNumberWinnersCount",
      "outputs": [
        {
          "internalType": "uint256",
          "name": "_value",
          "type": "uint256"
        }
      ],
      "stateMutability": "view",
      "type": "function"
    },
    {
      "inputs": [
        {
          "internalType": "uint256",
          "name": "",
          "type": "uint256"
        },
        {
          "internalType": "uint256",
          "name": "",
          "type": "uint256"
        }
      ],
      "name": "fourNumberWinners",
      "outputs": [
        {
          "internalType": "address",
          "name": "",
          "type": "address"
        }
      ],
      "stateMutability": "view",
      "type": "function"
    },
    {
      "inputs": [],
      "name": "fourNumberWinnersCount",
      "outputs": [
        {
          "internalType": "uint256",
          "name": "_value",
          "type": "uint256"
        }
      ],
      "stateMutability": "view",
      "type": "function"
    },
    {
      "inputs": [
        {
          "internalType": "uint256",
          "name": "_round",
          "type": "uint256"
        },
        {
          "internalType": "uint256",
          "name": "_ticketId",
          "type": "uint256"
        }
      ],
      "name": "getTicketNumbers",
      "outputs": [
        {
          "internalType": "uint256[]",
          "name": "",
          "type": "uint256[]"
        }
      ],
      "stateMutability": "view",
      "type": "function"
    },
    {
      "inputs": [],
      "name": "getWinningNumbers",
      "outputs": [
        {
          "internalType": "uint256[]",
          "name": "",
          "type": "uint256[]"
        }
      ],
      "stateMutability": "view",
      "type": "function"
    },
    {
      "inputs": [],
      "name": "roundCount",
      "outputs": [
        {
          "internalType": "uint256",
          "name": "_value",
          "type": "uint256"
        }
      ],
      "stateMutability": "view",
      "type": "function"
    },
    {
      "inputs": [
        {
          "internalType": "uint256",
          "name": "_ticketId",
          "type": "uint256"
        }
      ],
      "name": "submitWinningTicket",
      "outputs": [],
      "stateMutability": "nonpayable",
      "type": "function"
    },
    {
      "inputs": [
        {
          "internalType": "uint256",
          "name": "",
          "type": "uint256"
        },
        {
          "internalType": "uint256",
          "name": "",
          "type": "uint256"
        }
      ],
      "name": "submittedWinningUsers",
      "outputs": [
        {
          "internalType": "bool",
          "name": "",
          "type": "bool"
        }
      ],
      "stateMutability": "view",
      "type": "function"
    },
    {
      "inputs": [],
      "name": "ticketCount",
      "outputs": [
        {
          "internalType": "uint256",
          "name": "_value",
          "type": "uint256"
        }
      ],
      "stateMutability": "view",
      "type": "function"
    },
    {
      "inputs": [
        {
          "internalType": "uint256",
          "name": "",
          "type": "uint256"
        }
      ],
      "name": "ticketsPerRound",
      "outputs": [
        {
          "internalType": "uint256",
          "name": "",
          "type": "uint256"
        }
      ],
      "stateMutability": "view",
      "type": "function"
    },
    {
      "inputs": [
        {
          "internalType": "uint256",
          "name": "",
          "type": "uint256"
        },
        {
          "internalType": "uint256",
          "name": "",
          "type": "uint256"
        }
      ],
      "name": "userTickets",
      "outputs": [
        {
          "internalType": "address",
          "name": "owner",
          "type": "address"
        },
        {
          "internalType": "uint256",
          "name": "creationDate",
          "type": "uint256"
        }
      ],
      "stateMutability": "view",
      "type": "function"
    }
  ],
  "bytecode": "0x60806040526040518060a00160405280600260ff168152602001600460ff168152602001600660ff168152602001600860ff168152602001600a60ff16815250600590600562000051929190620000c1565b506000600c60006101000a81548160ff0219169083151502179055503480156200007a57600080fd5b50336000806101000a81548173ffffffffffffffffffffffffffffffffffffffff021916908373ffffffffffffffffffffffffffffffffffffffff16021790555062000137565b82805482825590600052602060002090810192821562000105579160200282015b8281111562000104578251829060ff16905591602001919060010190620000e2565b5b50905062000114919062000118565b5090565b5b808211156200013357600081600090555060010162000119565b5090565b611d1c80620001476000396000f3fe6080604052600436106100c25760003560e01c806384350e1d1161007f578063aad3623a11610059578063aad3623a14610282578063b7821c73146102bf578063cfbd900f146102ea578063e84b9b9914610315576100c2565b806384350e1d146101dc5780638c16e48014610207578063a97e311114610244576100c2565b8063127f0b3f146100c7578063151a2871146100f25780635781880b1461011b57806363e182bd14610146578063716cac9614610183578063836b0ce61461019f575b600080fd5b3480156100d357600080fd5b506100dc610352565b6040516100e9919061168a565b60405180910390f35b3480156100fe57600080fd5b5061011960048036038101906101149190611360565b61035e565b005b34801561012757600080fd5b5061013061087b565b60405161013d919061168a565b60405180910390f35b34801561015257600080fd5b5061016d60048036038101906101689190611389565b610887565b60405161017a9190611549565b60405180910390f35b61019d6004803603810190610198919061131f565b6108c9565b005b3480156101ab57600080fd5b506101c660048036038101906101c19190611360565b610b21565b6040516101d3919061168a565b60405180910390f35b3480156101e857600080fd5b506101f1610b39565b6040516101fe919061158d565b60405180910390f35b34801561021357600080fd5b5061022e60048036038101906102299190611389565b610b91565b60405161023b91906115af565b60405180910390f35b34801561025057600080fd5b5061026b60048036038101906102669190611389565b610bc0565b604051610279929190611564565b60405180910390f35b34801561028e57600080fd5b506102a960048036038101906102a49190611389565b610c21565b6040516102b69190611549565b60405180910390f35b3480156102cb57600080fd5b506102d4610c63565b6040516102e1919061168a565b60405180910390f35b3480156102f657600080fd5b506102ff610c6f565b60405161030c919061168a565b60405180910390f35b34801561032157600080fd5b5061033c60048036038101906103379190611389565b610c7b565b604051610349919061158d565b60405180910390f35b60018060000154905081565b6002600762015180426103719190611740565b61037b9190611a3f565b14806103a157506003600762015180426103959190611740565b61039f9190611a3f565b145b6103e0576040517f08c379a00000000000000000000000000000000000000000000000000000000081526004016103d79061166a565b60405180910390fd5b60001515600a60006103f26001610d30565b8152602001908152602001600020600083815260200190815260200160002060009054906101000a900460ff16151514610461576040517f08c379a0000000000000000000000000000000000000000000000000000000008152600401610458906115ea565b60405180910390fd5b6000600660006104716001610d30565b815260200190815260200160002082815481106104b7577f4e487b7100000000000000000000000000000000000000000000000000000000600052603260045260246000fd5b906000526020600020906003020160000180548060200260200160405190810160405280929190818152602001828054801561051257602002820191906000526020600020905b8154815260200190600101908083116104fe575b505050505090506000805b82518110156105f85760005b60058110156105e4576005818154811061056c577f4e487b7100000000000000000000000000000000000000000000000000000000600052603260045260246000fd5b90600052602060002001548483815181106105b0577f4e487b7100000000000000000000000000000000000000000000000000000000600052603260045260246000fd5b602002602001015114156105d15782806105c9906119f6565b9350506105e4565b80806105dc906119f6565b915050610529565b5080806105f0906119f6565b91505061051d565b50600481141561070757600660006106106001610d30565b81526020019081526020016000208381548110610656577f4e487b7100000000000000000000000000000000000000000000000000000000600052603260045260246000fd5b906000526020600020906003020160010160009054906101000a900473ffffffffffffffffffffffffffffffffffffffff16600860006106966001610d30565b815260200190815260200160002060006106b06003610d30565b815260200190815260200160002060006101000a81548173ffffffffffffffffffffffffffffffffffffffff021916908373ffffffffffffffffffffffffffffffffffffffff1602179055506107066003610d3e565b5b6005811415610815576006600061071e6001610d30565b81526020019081526020016000208381548110610764577f4e487b7100000000000000000000000000000000000000000000000000000000600052603260045260246000fd5b906000526020600020906003020160010160009054906101000a900473ffffffffffffffffffffffffffffffffffffffff16600960006107a46001610d30565b815260200190815260200160002060006107be6004610d30565b815260200190815260200160002060006101000a81548173ffffffffffffffffffffffffffffffffffffffff021916908373ffffffffffffffffffffffffffffffffffffffff1602179055506108146004610d3e565b5b6001600a60006108256001610d30565b8152602001908152602001600020600085815260200190815260200160002060006101000a81548160ff0219169083151502179055506001600c60006101000a81548160ff021916908315150217905550505050565b60048060000154905081565b60096020528160005260406000206020528060005260406000206000915091509054906101000a900473ffffffffffffffffffffffffffffffffffffffff1681565b600581511015806108dc5750600a815111155b61091b576040517f08c379a00000000000000000000000000000000000000000000000000000000081526004016109129061160a565b60405180910390fd5b6107d060026004835161092e919061193c565b61093891906117c4565b61094291906118e2565b341015610984576040517f08c379a000000000000000000000000000000000000000000000000000000000815260040161097b9061162a565b60405180910390fd5b6002600762015180426109979190611740565b6109a19190611a3f565b1415806109c857506003600762015180426109bc9190611740565b6109c69190611a3f565b145b610a07576040517f08c379a00000000000000000000000000000000000000000000000000000000081526004016109fe9061164a565b60405180910390fd5b610a1081610d54565b60066000610a1e6001610d30565b815260200190815260200160002060405180606001604052808381526020013373ffffffffffffffffffffffffffffffffffffffff1681526020014281525090806001815401808255809150506001900390600052602060002090600302016000909190919091506000820151816000019080519060200190610aa292919061120a565b5060208201518160010160006101000a81548173ffffffffffffffffffffffffffffffffffffffff021916908373ffffffffffffffffffffffffffffffffffffffff160217905550604082015181600201555050610b006002610d3e565b600c60009054906101000a900460ff1615610b1e57610b1d610f17565b5b50565b60076020528060005260406000206000915090505481565b60606005805480602002602001604051908101604052809291908181526020018280548015610b8757602002820191906000526020600020905b815481526020019060010190808311610b73575b5050505050905090565b600a6020528160005260406000206020528060005260406000206000915091509054906101000a900460ff1681565b60066020528160005260406000208181548110610bdc57600080fd5b9060005260206000209060030201600091509150508060010160009054906101000a900473ffffffffffffffffffffffffffffffffffffffff16908060020154905082565b60086020528160005260406000206020528060005260406000206000915091509054906101000a900473ffffffffffffffffffffffffffffffffffffffff1681565b60038060000154905081565b60028060000154905081565b6060600660008481526020019081526020016000208281548110610cc8577f4e487b7100000000000000000000000000000000000000000000000000000000600052603260045260246000fd5b9060005260206000209060030201600001805480602002602001604051908101604052809291908181526020018280548015610d2357602002820191906000526020600020905b815481526020019060010190808311610d0f575b5050505050905092915050565b600081600001549050919050565b6001816000016000828254019250508190555050565b60005b8151811015610e875760011515600b6000848481518110610da1577f4e487b7100000000000000000000000000000000000000000000000000000000600052603260045260246000fd5b6020026020010151815260200190815260200160002060009054906101000a900460ff1615151415610e08576040517f08c379a0000000000000000000000000000000000000000000000000000000008152600401610dff906115ca565b60405180910390fd5b6001600b6000848481518110610e47577f4e487b7100000000000000000000000000000000000000000000000000000000600052603260045260246000fd5b6020026020010151815260200190815260200160002060006101000a81548160ff0219169083151502179055508080610e7f906119f6565b915050610d57565b5060005b8151811015610f13576000600b6000848481518110610ed3577f4e487b7100000000000000000000000000000000000000000000000000000000600052603260045260246000fd5b6020026020010151815260200190815260200160002060006101000a81548160ff0219169083151502179055508080610f0b906119f6565b915050610e8b565b5050565b600067016345785d8a000047610f2d919061193c565b90506000606482610f3e9190611740565b905060008054906101000a900473ffffffffffffffffffffffffffffffffffffffff1673ffffffffffffffffffffffffffffffffffffffff166108fc829081150290604051600060405180830381858888f19350505050158015610fa6573d6000803e3d6000fd5b508082610fb3919061193c565b91506000610fc16003610d30565b6014606485610fd09190611740565b610fda91906118e2565b610fe49190611740565b905060005b610ff36003610d30565b8110156110a157600860006110086001610d30565b8152602001908152602001600020600082815260200190815260200160002060009054906101000a900473ffffffffffffffffffffffffffffffffffffffff1673ffffffffffffffffffffffffffffffffffffffff166108fc839081150290604051600060405180830381858888f1935050505015801561108d573d6000803e3d6000fd5b508080611099906119f6565b915050610fe9565b5060006110ae6004610d30565b67016345785d8a0000476110c2919061193c565b6110cc9190611740565b905060005b6110db6004610d30565b81101561118957600960006110f06001610d30565b8152602001908152602001600020600082815260200190815260200160002060009054906101000a900473ffffffffffffffffffffffffffffffffffffffff1673ffffffffffffffffffffffffffffffffffffffff166108fc839081150290604051600060405180830381858888f19350505050158015611175573d6000803e3d6000fd5b508080611181906119f6565b9150506110d1565b506111946002610d30565b600760006111a26001610d30565b8152602001908152602001600020819055506111be6001610d3e565b6111c860026111fd565b6111d260036111fd565b6111dc60046111fd565b6000600c60006101000a81548160ff02191690831515021790555050505050565b6000816000018190555050565b828054828255906000526020600020908101928215611246579160200282015b8281111561124557825182559160200191906001019061122a565b5b5090506112539190611257565b5090565b5b80821115611270576000816000905550600101611258565b5090565b6000611287611282846116ca565b6116a5565b905080838252602082019050828560208602820111156112a657600080fd5b60005b858110156112d657816112bc888261130a565b8452602084019350602083019250506001810190506112a9565b5050509392505050565b600082601f8301126112f157600080fd5b8135611301848260208601611274565b91505092915050565b60008135905061131981611ccf565b92915050565b60006020828403121561133157600080fd5b600082013567ffffffffffffffff81111561134b57600080fd5b611357848285016112e0565b91505092915050565b60006020828403121561137257600080fd5b60006113808482850161130a565b91505092915050565b6000806040838503121561139c57600080fd5b60006113aa8582860161130a565b92505060206113bb8582860161130a565b9150509250929050565b60006113d1838361152b565b60208301905092915050565b6113e681611970565b82525050565b60006113f782611706565b611401818561171e565b935061140c836116f6565b8060005b8381101561143d57815161142488826113c5565b975061142f83611711565b925050600181019050611410565b5085935050505092915050565b61145381611982565b82525050565b600061146660128361172f565b915061147182611b1b565b602082019050919050565b6000611489601f8361172f565b915061149482611b44565b602082019050919050565b60006114ac60388361172f565b91506114b782611b6d565b604082019050919050565b60006114cf60258361172f565b91506114da82611bbc565b604082019050919050565b60006114f260468361172f565b91506114fd82611c0b565b606082019050919050565b6000611515602f8361172f565b915061152082611c80565b604082019050919050565b611534816119ae565b82525050565b611543816119ae565b82525050565b600060208201905061155e60008301846113dd565b92915050565b600060408201905061157960008301856113dd565b611586602083018461153a565b9392505050565b600060208201905081810360008301526115a781846113ec565b905092915050565b60006020820190506115c4600083018461144a565b92915050565b600060208201905081810360008301526115e381611459565b9050919050565b600060208201905081810360008301526116038161147c565b9050919050565b600060208201905081810360008301526116238161149f565b9050919050565b60006020820190508181036000830152611643816114c2565b9050919050565b60006020820190508181036000830152611663816114e5565b9050919050565b6000602082019050818103600083015261168381611508565b9050919050565b600060208201905061169f600083018461153a565b92915050565b60006116af6116c0565b90506116bb82826119c5565b919050565b6000604051905090565b600067ffffffffffffffff8211156116e5576116e4611ace565b5b602082029050602081019050919050565b6000819050602082019050919050565b600081519050919050565b6000602082019050919050565b600082825260208201905092915050565b600082825260208201905092915050565b600061174b826119ae565b9150611756836119ae565b92508261176657611765611a9f565b5b828204905092915050565b6000808291508390505b60018511156117bb5780860481111561179757611796611a70565b5b60018516156117a65780820291505b80810290506117b485611b0e565b945061177b565b94509492505050565b60006117cf826119ae565b91506117da836119b8565b92506118077fffffffffffffffffffffffffffffffffffffffffffffffffffffffffffffffff848461180f565b905092915050565b60008261181f57600190506118db565b8161182d57600090506118db565b8160018114611843576002811461184d5761187c565b60019150506118db565b60ff84111561185f5761185e611a70565b5b8360020a91508482111561187657611875611a70565b5b506118db565b5060208310610133831016604e8410600b84101617156118b15782820a9050838111156118ac576118ab611a70565b5b6118db565b6118be8484846001611771565b925090508184048111156118d5576118d4611a70565b5b81810290505b9392505050565b60006118ed826119ae565b91506118f8836119ae565b9250817fffffffffffffffffffffffffffffffffffffffffffffffffffffffffffffffff048311821515161561193157611930611a70565b5b828202905092915050565b6000611947826119ae565b9150611952836119ae565b92508282101561196557611964611a70565b5b828203905092915050565b600061197b8261198e565b9050919050565b60008115159050919050565b600073ffffffffffffffffffffffffffffffffffffffff82169050919050565b6000819050919050565b600060ff82169050919050565b6119ce82611afd565b810181811067ffffffffffffffff821117156119ed576119ec611ace565b5b80604052505050565b6000611a01826119ae565b91507fffffffffffffffffffffffffffffffffffffffffffffffffffffffffffffffff821415611a3457611a33611a70565b5b600182019050919050565b6000611a4a826119ae565b9150611a55836119ae565b925082611a6557611a64611a9f565b5b828206905092915050565b7f4e487b7100000000000000000000000000000000000000000000000000000000600052601160045260246000fd5b7f4e487b7100000000000000000000000000000000000000000000000000000000600052601260045260246000fd5b7f4e487b7100000000000000000000000000000000000000000000000000000000600052604160045260246000fd5b6000601f19601f8301169050919050565b60008160011c9050919050565b7f4475626c696361746564204e756d626572730000000000000000000000000000600082015250565b7f5469636b6574206f776e657220616c7265616479207375626d69747465642e00600082015250565b7f4d696e696d756d204e756d6265727320616c6c6f7765643a20352c204d61786960008201527f6d756d204e756d6265727320616c6c6f7765643a2031302e0000000000000000602082015250565b7f6d73672e76616c756520646f65736e2774206d61746368207469636b6574207060008201527f726963652e000000000000000000000000000000000000000000000000000000602082015250565b7f5469636b6574732063616e206e6f7420626520627579676874207768696c652060008201527f746865206c6f747465727920697320696e20636c61696d20726577617264732060208201527f73746174652e0000000000000000000000000000000000000000000000000000604082015250565b7f57696e6e696e67207469636b6574732063616e206e6f74206265207375626d6960008201527f74746564207269676874206e6f772e0000000000000000000000000000000000602082015250565b611cd8816119ae565b8114611ce357600080fd5b5056fea264697066735822122076281e611500a707eae5c3b225d873bf1486408522ab20c23c883c52dadeab8764736f6c63430008040033",
  "linkReferences": {},
  "deployedLinkReferences": {}
}