{
    "contractName": "LotteryLogic",
    "abi": [
        {
            "inputs": [
                {
                    "internalType": "address",
                    "name": "_LotteryStorageAddress",
                    "type": "address"
                }
            ],
            "stateMutability": "nonpayable",
            "type": "constructor"
        },
        {
            "anonymous": false,
            "inputs": [
                {
                    "indexed": false,
                    "internalType": "uint256[]",
                    "name": "ticketNumbers",
                    "type": "uint256[]"
                },
                {
                    "indexed": false,
                    "internalType": "address",
                    "name": "owner",
                    "type": "address"
                },
                {
                    "indexed": false,
                    "internalType": "uint256",
                    "name": "creationDate",
                    "type": "uint256"
                }
            ],
            "name": "newTicket",
            "type": "event"
        },
        {
            "inputs": [],
            "name": "VRFv2ConsumerAddress",
            "outputs": [
                {
                    "internalType": "address",
                    "name": "",
                    "type": "address"
                }
            ],
            "stateMutability": "view",
            "type": "function"
        },
        {
            "inputs": [
                {
                    "internalType": "uint256[]",
                    "name": "_numbers",
                    "type": "uint256[]"
                }
            ],
            "name": "buyTicket",
            "outputs": [],
            "stateMutability": "payable",
            "type": "function"
        },
        {
            "inputs": [],
            "name": "getWinningNumbers",
            "outputs": [
                {
                    "internalType": "uint256[]",
                    "name": "",
                    "type": "uint256[]"
                }
            ],
            "stateMutability": "view",
            "type": "function"
        },
        {
            "inputs": [
                {
                    "internalType": "uint256",
                    "name": "_ticketId",
                    "type": "uint256"
                }
            ],
            "name": "submitWinningTicket",
            "outputs": [],
            "stateMutability": "nonpayable",
            "type": "function"
        },
        {
            "inputs": [
                {
                    "internalType": "uint256",
                    "name": "",
                    "type": "uint256"
                },
                {
                    "internalType": "uint256",
                    "name": "",
                    "type": "uint256"
                }
            ],
            "name": "submittedWinningTickets",
            "outputs": [
                {
                    "internalType": "bool",
                    "name": "",
                    "type": "bool"
                }
            ],
            "stateMutability": "view",
            "type": "function"
        }
    ],
    "bytecode": "61012060405260026080908152600460a0819052600660c052600860e052600a61010052620000309160056200010d565b506007805460ff191690553480156200004857600080fd5b50604051620024d7380380620024d78339810160408190526200006b9162000187565b6111a16040516200007c9062000162565b6001600160401b039091168152602001604051809103906000f080158015620000a9573d6000803e3d6000fd5b50600080546001600160a01b039283166001600160a01b03199182168117909255600180548216909217909155600280549390921692169190911790556003805460ff60a01b1933166001600160a81b031990911617600160a01b179055620001b9565b82805482825590600052602060002090810192821562000150579160200282015b8281111562000150578251829060ff169055916020019190600101906200012e565b506200015e92915062000170565b5090565b61060c8062001ecb83390190565b5b808211156200015e576000815560010162000171565b6000602082840312156200019a57600080fd5b81516001600160a01b0381168114620001b257600080fd5b9392505050565b611d0280620001c96000396000f3fe60806040526004361061004a5760003560e01c8063151a28711461004f5780634a1db02b14610071578063555d2940146100c1578063716cac96146100f957806384350e1d1461010c575b600080fd5b34801561005b57600080fd5b5061006f61006a3660046117cb565b61012e565b005b34801561007d57600080fd5b506100ac61008c3660046117e4565b600560209081526000928352604080842090915290825290205460ff1681565b60405190151581526020015b60405180910390f35b3480156100cd57600080fd5b506000546100e1906001600160a01b031681565b6040516001600160a01b0390911681526020016100b8565b61006f610107366004611871565b610aa6565b34801561011857600080fd5b50610121610dee565b6040516100b89190611942565b600761013d6201518042611988565b610147919061199c565b6002148061017a5750600761015f6201518042611988565b610169919061199c565b600314801561017a57506127104710155b6101e35760405162461bcd60e51b815260206004820152602f60248201527f57696e6e696e67207469636b6574732063616e206e6f74206265207375626d6960448201526e3a3a32b2103934b3b43a103737bb9760891b60648201526084015b60405180910390fd5b60056000600260009054906101000a90046001600160a01b03166001600160a01b031663127f0b3f6040518163ffffffff1660e01b8152600401602060405180830381865afa15801561023a573d6000803e3d6000fd5b505050506040513d601f19601f8201168201806040525081019061025e91906119b0565b81526020808201929092526040908101600090812084825290925290205460ff16156102cc5760405162461bcd60e51b815260206004820152601960248201527f5469636b657420616c7265616479207375626d69747465642e0000000000000060448201526064016101da565b600354600160a01b900460ff16156102f4576102e6610e46565b6003805460ff60a01b191690555b6002546040805163127f0b3f60e01b815290516000926001600160a01b03169163e84b9b9991839163127f0b3f9160048083019260209291908290030181865afa158015610346573d6000803e3d6000fd5b505050506040513d601f19601f8201168201806040525081019061036a91906119b0565b846040518363ffffffff1660e01b8152600401610391929190918252602082015260400190565b600060405180830381865afa1580156103ae573d6000803e3d6000fd5b505050506040513d6000823e601f3d908101601f191682016040526103d69190810190611a2f565b90506000805b82518110156104655760005b6005811015610452576004818154811061040457610404611a6c565b906000526020600020015484838151811061042157610421611a6c565b602002602001015103610440578261043881611a82565b935050610452565b8061044a81611a82565b9150506103e8565b508061045d81611a82565b9150506103dc565b508060040361072a576002546040805163127f0b3f60e01b815290516001600160a01b039092169163e77eded391839163127f0b3f916004808201926020929091908290030181865afa1580156104c0573d6000803e3d6000fd5b505050506040513d601f19601f820116820180604052508101906104e491906119b0565b600260009054906101000a90046001600160a01b03166001600160a01b031663b7821c736040518163ffffffff1660e01b8152600401602060405180830381865afa158015610537573d6000803e3d6000fd5b505050506040513d601f19601f8201168201806040525081019061055b91906119b0565b6002546040805163127f0b3f60e01b815290516001600160a01b039092169163a426e4c891839163127f0b3f916004808201926020929091908290030181865afa1580156105ad573d6000803e3d6000fd5b505050506040513d601f19601f820116820180604052508101906105d191906119b0565b896040518363ffffffff1660e01b81526004016105f8929190918252602082015260400190565b600060405180830381865afa158015610615573d6000803e3d6000fd5b505050506040513d6000823e601f3d908101601f1916820160405261063d9190810190611ab7565b602001516040516001600160e01b031960e086901b168152600481019390935260248301919091526001600160a01b03166044820152606401600060405180830381600087803b15801561069057600080fd5b505af11580156106a4573d6000803e3d6000fd5b50505050600260009054906101000a90046001600160a01b03166001600160a01b031663ad00b0336040518163ffffffff1660e01b8152600401600060405180830381600087803b1580156106f857600080fd5b505af115801561070c573d6000803e3d6000fd5b505060075460ff16915061072a9050576007805460ff191660011790555b806005036109ee576002546040805163127f0b3f60e01b815290516001600160a01b039092169163818db38891839163127f0b3f916004808201926020929091908290030181865afa158015610784573d6000803e3d6000fd5b505050506040513d601f19601f820116820180604052508101906107a891906119b0565b600260009054906101000a90046001600160a01b03166001600160a01b031663b7821c736040518163ffffffff1660e01b8152600401602060405180830381865afa1580156107fb573d6000803e3d6000fd5b505050506040513d601f19601f8201168201806040525081019061081f91906119b0565b6002546040805163127f0b3f60e01b815290516001600160a01b039092169163a426e4c891839163127f0b3f916004808201926020929091908290030181865afa158015610871573d6000803e3d6000fd5b505050506040513d601f19601f8201168201806040525081019061089591906119b0565b896040518363ffffffff1660e01b81526004016108bc929190918252602082015260400190565b600060405180830381865afa1580156108d9573d6000803e3d6000fd5b505050506040513d6000823e601f3d908101601f191682016040526109019190810190611ab7565b602001516040516001600160e01b031960e086901b168152600481019390935260248301919091526001600160a01b03166044820152606401600060405180830381600087803b15801561095457600080fd5b505af1158015610968573d6000803e3d6000fd5b50505050600260009054906101000a90046001600160a01b03166001600160a01b0316631801e1166040518163ffffffff1660e01b8152600401600060405180830381600087803b1580156109bc57600080fd5b505af11580156109d0573d6000803e3d6000fd5b505060075460ff1691506109ee9050576007805460ff191660011790555b600160056000600260009054906101000a90046001600160a01b03166001600160a01b031663127f0b3f6040518163ffffffff1660e01b8152600401602060405180830381865afa158015610a47573d6000803e3d6000fd5b505050506040513d601f19601f82011682018060405250810190610a6b91906119b0565b8152602001908152602001600020600085815260200190815260200160002060006101000a81548160ff021916908315150217905550505050565b60058151101580610ab95750600a815111155b610b2b5760405162461bcd60e51b815260206004820152603860248201527f4d696e696d756d204e756d6265727320616c6c6f7765643a20352c204d61786960448201527f6d756d204e756d6265727320616c6c6f7765643a2031302e000000000000000060648201526084016101da565b600260048251610b3b9190611b58565b610b459190611c55565b610b569066071afd498d0000611c64565b341015610bb35760405162461bcd60e51b815260206004820152602560248201527f6d73672e76616c756520646f65736e2774206d61746368207469636b657420706044820152643934b1b29760d91b60648201526084016101da565b6007610bc26201518042611988565b610bcc919061199c565b6002141580610bf457506007610be56201518042611988565b610bef919061199c565b600314155b80610c00575061271047105b610c815760405162461bcd60e51b815260206004820152604660248201527f5469636b6574732063616e206e6f7420626520627579676874207768696c652060448201527f746865206c6f747465727920697320696e20636c61696d20726577617264732060648201526539ba30ba329760d11b608482015260a4016101da565b600354600160a01b900460ff16610cc45760075460ff1615610cb057610ca5610eb0565b6007805460ff191690555b6003805460ff60a01b1916600160a01b1790555b610ccd81611685565b6002546040516305a5a8af60e31b81526001600160a01b0390911690632d2d457890610d0190849033904290600401611c83565b600060405180830381600087803b158015610d1b57600080fd5b505af1158015610d2f573d6000803e3d6000fd5b50505050600260009054906101000a90046001600160a01b03166001600160a01b03166357d32e2c6040518163ffffffff1660e01b8152600401600060405180830381600087803b158015610d8357600080fd5b505af1158015610d97573d6000803e3d6000fd5b505060075460ff16159150610db0905057610db0610eb0565b7f3f3ce808a956238f6a4663d0dd2685bfc2557b4399f220d215ce17153f9aff27813342604051610de393929190611c83565b60405180910390a150565b60606004805480602002602001604051908101604052809291908181526020018280548015610e3c57602002820191906000526020600020905b815481526020019060010190808311610e28575b5050505050905090565b600160009054906101000a90046001600160a01b03166001600160a01b031663e0c862896040518163ffffffff1660e01b8152600401600060405180830381600087803b158015610e9657600080fd5b505af1158015610eaa573d6000803e3d6000fd5b50505050565b6000610ec16402540be40047611b58565b90506000610ed0606483611988565b6003546040519192506001600160a01b03169082156108fc029083906000818181858888f19350505050158015610f0b573d6000803e3d6000fd5b50610f168183611b58565b91506000600260009054906101000a90046001600160a01b03166001600160a01b031663b7821c736040518163ffffffff1660e01b8152600401602060405180830381865afa158015610f6d573d6000803e3d6000fd5b505050506040513d601f19601f82011682018060405250810190610f9191906119b0565b610f9c606485611988565b610fa7906014611c64565b610fb19190611988565b905060005b600260009054906101000a90046001600160a01b03166001600160a01b031663b7821c736040518163ffffffff1660e01b8152600401602060405180830381865afa158015611009573d6000803e3d6000fd5b505050506040513d601f19601f8201168201806040525081019061102d91906119b0565b81101561115d576002546040805163127f0b3f60e01b815290516001600160a01b039092169163aad3623a91839163127f0b3f916004808201926020929091908290030181865afa158015611086573d6000803e3d6000fd5b505050506040513d601f19601f820116820180604052508101906110aa91906119b0565b836040518363ffffffff1660e01b81526004016110d1929190918252602082015260400190565b602060405180830381865afa1580156110ee573d6000803e3d6000fd5b505050506040513d601f19601f820116820180604052508101906111129190611cb1565b6001600160a01b03166108fc839081150290604051600060405180830381858888f1935050505015801561114a573d6000803e3d6000fd5b508061115581611a82565b915050610fb6565b5060025460408051635781880b60e01b815290516000926001600160a01b031691635781880b9160048083019260209291908290030181865afa1580156111a8573d6000803e3d6000fd5b505050506040513d601f19601f820116820180604052508101906111cc91906119b0565b6111db6402540be40047611b58565b6111e59190611988565b905060005b600260009054906101000a90046001600160a01b03166001600160a01b0316635781880b6040518163ffffffff1660e01b8152600401602060405180830381865afa15801561123d573d6000803e3d6000fd5b505050506040513d601f19601f8201168201806040525081019061126191906119b0565b811015611391576002546040805163127f0b3f60e01b815290516001600160a01b03909216916363e182bd91839163127f0b3f916004808201926020929091908290030181865afa1580156112ba573d6000803e3d6000fd5b505050506040513d601f19601f820116820180604052508101906112de91906119b0565b836040518363ffffffff1660e01b8152600401611305929190918252602082015260400190565b602060405180830381865afa158015611322573d6000803e3d6000fd5b505050506040513d601f19601f820116820180604052508101906113469190611cb1565b6001600160a01b03166108fc839081150290604051600060405180830381858888f1935050505015801561137e573d6000803e3d6000fd5b508061138981611a82565b9150506111ea565b506002546040805163127f0b3f60e01b815290516001600160a01b0390921691632457219c91839163127f0b3f916004808201926020929091908290030181865afa1580156113e4573d6000803e3d6000fd5b505050506040513d601f19601f8201168201806040525081019061140891906119b0565b600260009054906101000a90046001600160a01b03166001600160a01b031663cfbd900f6040518163ffffffff1660e01b8152600401602060405180830381865afa15801561145b573d6000803e3d6000fd5b505050506040513d601f19601f8201168201806040525081019061147f91906119b0565b6040516001600160e01b031960e085901b16815260048101929092526024820152604401600060405180830381600087803b1580156114bd57600080fd5b505af11580156114d1573d6000803e3d6000fd5b50505050600260009054906101000a90046001600160a01b03166001600160a01b031663489d97d86040518163ffffffff1660e01b8152600401600060405180830381600087803b15801561152557600080fd5b505af1158015611539573d6000803e3d6000fd5b50505050600260009054906101000a90046001600160a01b03166001600160a01b031663a411ef696040518163ffffffff1660e01b8152600401600060405180830381600087803b15801561158d57600080fd5b505af11580156115a1573d6000803e3d6000fd5b50505050600260009054906101000a90046001600160a01b03166001600160a01b0316633b8e3c906040518163ffffffff1660e01b8152600401600060405180830381600087803b1580156115f557600080fd5b505af1158015611609573d6000803e3d6000fd5b50505050600260009054906101000a90046001600160a01b03166001600160a01b031663a32605926040518163ffffffff1660e01b8152600401600060405180830381600087803b15801561165d57600080fd5b505af1158015611671573d6000803e3d6000fd5b50506007805460ff19169055505050505050565b60005b815181101561176257600660008383815181106116a7576116a7611a6c565b60209081029190910181015182528101919091526040016000205460ff16151560010361170b5760405162461bcd60e51b81526020600482015260126024820152714475626c696361746564204e756d6265727360701b60448201526064016101da565b60016006600084848151811061172357611723611a6c565b6020026020010151815260200190815260200160002060006101000a81548160ff0219169083151502179055508061175a81611a82565b915050611688565b5060005b81518110156117c75760006006600084848151811061178757611787611a6c565b6020026020010151815260200190815260200160002060006101000a81548160ff02191690831515021790555080806117bf90611a82565b915050611766565b5050565b6000602082840312156117dd57600080fd5b5035919050565b600080604083850312156117f757600080fd5b50508035926020909101359150565b634e487b7160e01b600052604160045260246000fd5b604051601f8201601f1916810167ffffffffffffffff8111828210171561184557611845611806565b604052919050565b600067ffffffffffffffff82111561186757611867611806565b5060051b60200190565b6000602080838503121561188457600080fd5b823567ffffffffffffffff81111561189b57600080fd5b8301601f810185136118ac57600080fd5b80356118bf6118ba8261184d565b61181c565b81815260059190911b820183019083810190878311156118de57600080fd5b928401925b828410156118fc578335825292840192908401906118e3565b979650505050505050565b600081518084526020808501945080840160005b838110156119375781518752958201959082019060010161191b565b509495945050505050565b6020815260006119556020830184611907565b9392505050565b634e487b7160e01b600052601260045260246000fd5b634e487b7160e01b600052601160045260246000fd5b6000826119975761199761195c565b500490565b6000826119ab576119ab61195c565b500690565b6000602082840312156119c257600080fd5b5051919050565b600082601f8301126119da57600080fd5b815160206119ea6118ba8361184d565b82815260059290921b84018101918181019086841115611a0957600080fd5b8286015b84811015611a245780518352918301918301611a0d565b509695505050505050565b600060208284031215611a4157600080fd5b815167ffffffffffffffff811115611a5857600080fd5b611a64848285016119c9565b949350505050565b634e487b7160e01b600052603260045260246000fd5b600060018201611a9457611a94611972565b5060010190565b80516001600160a01b0381168114611ab257600080fd5b919050565b600060208284031215611ac957600080fd5b815167ffffffffffffffff80821115611ae157600080fd5b9083019060608286031215611af557600080fd5b604051606081018181108382111715611b1057611b10611806565b604052825182811115611b2257600080fd5b611b2e878286016119c9565b825250611b3d60208401611a9b565b60208201526040830151604082015280935050505092915050565b600082821015611b6a57611b6a611972565b500390565b600181815b80851115611baa578160001904821115611b9057611b90611972565b80851615611b9d57918102915b93841c9390800290611b74565b509250929050565b600082611bc157506001611c4f565b81611bce57506000611c4f565b8160018114611be45760028114611bee57611c0a565b6001915050611c4f565b60ff841115611bff57611bff611972565b50506001821b611c4f565b5060208310610133831016604e8410600b8410161715611c2d575081810a611c4f565b611c378383611b6f565b8060001904821115611c4b57611c4b611972565b0290505b92915050565b600061195560ff841683611bb2565b6000816000190483118215151615611c7e57611c7e611972565b500290565b606081526000611c966060830186611907565b6001600160a01b039490941660208301525060400152919050565b600060208284031215611cc357600080fd5b61195582611a9b56fea2646970667358221220e95b599b6c221f70d9a9187fb44709a41a20787cde7afb32eca15ad878c3334664736f6c634300080f003360a060405260028054600160401b600160e01b0319167b6168499c0cffcacd319c818142124b7a15e857ab00000000000000001790557fd89b2bf150e3b9e13446986e571fb9cab24b13cea0a43ea20a6049a85cc807cc600355600480546001600160501b0319166605000300030d4017905534801561007e57600080fd5b5060405161060c38038061060c83398101604081905261009d916100fd565b600280546001600160a01b03680100000000000000008204166080819052600080546001600160a01b0319908116909217905560078054909116331790556001600160401b039092166001600160401b031990921691909117905561012d565b60006020828403121561010f57600080fd5b81516001600160401b038116811461012657600080fd5b9392505050565b6080516104be61014e6000396000818160c5015261010701526104be6000f3fe608060405234801561001057600080fd5b50600436106100575760003560e01c80631fe543e31461005c578063c5b6a37714610071578063e0c8628914610084578063e89e106a1461008c578063f6eaffc8146100a7575b600080fd5b61006f61006a366004610342565b6100ba565b005b61006f61007f36600461040c565b610146565b61006f6101b1565b61009560065481565b60405190815260200160405180910390f35b6100956100b5366004610456565b610293565b336001600160a01b037f000000000000000000000000000000000000000000000000000000000000000016146101385760405163073e64fd60e21b81523360048201526001600160a01b037f000000000000000000000000000000000000000000000000000000000000000016602482015260440160405180910390fd5b61014282826102b4565b5050565b6007546001600160a01b0316331461015d57600080fd5b80151560010361018f57506001600160a01b03166000908152600160208190526040909120805460ff19169091179055565b506001600160a01b03166000908152600160205260409020805460ff19169055565b3360009081526001602081905260409091205460ff161515146101d357600080fd5b600054600354600254600480546040516305d3b1d360e41b81529182019390935267ffffffffffffffff9091166024820152640100000000820461ffff16604482015263ffffffff8083166064830152660100000000000090920490911660848201526001600160a01b0390911690635d3b1d309060a4016020604051808303816000875af115801561026a573d6000803e3d6000fd5b505050506040513d601f19601f8201168201806040525081019061028e919061046f565b600655565b600581815481106102a357600080fd5b600091825260209091200154905081565b80516102c79060059060208401906102cc565b505050565b828054828255906000526020600020908101928215610307579160200282015b828111156103075782518255916020019190600101906102ec565b50610313929150610317565b5090565b5b808211156103135760008155600101610318565b634e487b7160e01b600052604160045260246000fd5b6000806040838503121561035557600080fd5b8235915060208084013567ffffffffffffffff8082111561037557600080fd5b818601915086601f83011261038957600080fd5b81358181111561039b5761039b61032c565b8060051b604051601f19603f830116810181811085821117156103c0576103c061032c565b6040529182528482019250838101850191898311156103de57600080fd5b938501935b828510156103fc578435845293850193928501926103e3565b8096505050505050509250929050565b6000806040838503121561041f57600080fd5b82356001600160a01b038116811461043657600080fd5b91506020830135801515811461044b57600080fd5b809150509250929050565b60006020828403121561046857600080fd5b5035919050565b60006020828403121561048157600080fd5b505191905056fea2646970667358221220cc1c7d5bb9b9297d5b51c31d0db153d46ca5e8f6432a9ade66d6b6d1e3d5701064736f6c634300080f0033",
    "sourcePath": "/Users/aleks/Documents/Lottery/oldlottery/contracts/LotteryLogic.sol",
    "compiler": {
        "name": "solc",
        "version": "0.8.15+commit.e14f2714"
    },
    "functionHashes": {
        "VRFv2ConsumerAddress()": "555d2940",
        "buyTicket(uint256[])": "716cac96",
        "getWinningNumbers()": "84350e1d",
        "submitWinningTicket(uint256)": "151a2871",
        "submittedWinningTickets(uint256,uint256)": "4a1db02b"
    },
    "gasEstimates": {
        "creation": {
            "codeDepositCost": "1485200",
            "executionCost": "infinite",
            "totalCost": "infinite"
        },
        "external": {
            "VRFv2ConsumerAddress()": "2359",
            "buyTicket(uint256[])": "infinite",
            "getWinningNumbers()": "infinite",
            "submitWinningTicket(uint256)": "infinite",
            "submittedWinningTickets(uint256,uint256)": "2534"
        },
        "internal": {
            "checkUniqueNumbers(uint256[] memory)": "infinite",
            "payWinners()": "infinite",
            "requestNumbers()": "infinite"
        }
    }
}