{
  "_format": "hh-sol-artifact-1",
  "contractName": "LotteryLogic",
  "sourceName": "contracts/LotteryLogic.sol",
  "abi": [
    {
      "inputs": [
        {
          "internalType": "address",
          "name": "_lotteryStorageAddress",
          "type": "address"
        }
      ],
      "stateMutability": "nonpayable",
      "type": "constructor"
    },
    {
      "anonymous": false,
      "inputs": [
        {
          "indexed": false,
          "internalType": "uint256[]",
          "name": "ticketNumbers",
          "type": "uint256[]"
        },
        {
          "indexed": false,
          "internalType": "address",
          "name": "owner",
          "type": "address"
        },
        {
          "indexed": false,
          "internalType": "uint256",
          "name": "creationDate",
          "type": "uint256"
        }
      ],
      "name": "newTicket",
      "type": "event"
    },
    {
      "inputs": [],
      "name": "VRFv2ConsumerAddress",
      "outputs": [
        {
          "internalType": "address",
          "name": "",
          "type": "address"
        }
      ],
      "stateMutability": "view",
      "type": "function"
    },
    {
      "inputs": [],
      "name": "blocktime",
      "outputs": [
        {
          "internalType": "uint256",
          "name": "",
          "type": "uint256"
        }
      ],
      "stateMutability": "view",
      "type": "function"
    },
    {
      "inputs": [
        {
          "internalType": "uint256[]",
          "name": "_numbers",
          "type": "uint256[]"
        }
      ],
      "name": "buyTicket",
      "outputs": [],
      "stateMutability": "payable",
      "type": "function"
    },
    {
      "inputs": [],
      "name": "getWinningNumbers",
      "outputs": [
        {
          "internalType": "uint256[]",
          "name": "",
          "type": "uint256[]"
        }
      ],
      "stateMutability": "view",
      "type": "function"
    },
    {
      "inputs": [],
      "name": "requestNumbers",
      "outputs": [],
      "stateMutability": "nonpayable",
      "type": "function"
    },
    {
      "inputs": [],
      "name": "retrieveNewNumbers",
      "outputs": [],
      "stateMutability": "nonpayable",
      "type": "function"
    },
    {
      "inputs": [
        {
          "internalType": "uint256",
          "name": "_ticketId",
          "type": "uint256"
        }
      ],
      "name": "submitWinningTicket",
      "outputs": [],
      "stateMutability": "nonpayable",
      "type": "function"
    },
    {
      "inputs": [
        {
          "internalType": "uint256",
          "name": "",
          "type": "uint256"
        },
        {
          "internalType": "uint256",
          "name": "",
          "type": "uint256"
        }
      ],
      "name": "submittedWinningTickets",
      "outputs": [
        {
          "internalType": "bool",
          "name": "",
          "type": "bool"
        }
      ],
      "stateMutability": "view",
      "type": "function"
    }
  ],
  "bytecode": "0x60806040526040518060a00160405280600260ff168152602001600460ff168152602001600660ff168152602001600860ff168152602001600a60ff1681525060059060056200005192919062000204565b506000600860006101000a81548160ff0219169083151502179055503480156200007a57600080fd5b5060405162003ba838038062003ba88339818101604052810190620000a09190620002f2565b6111a1604051620000b1906200025b565b620000bd919062000385565b604051809103906000f080158015620000da573d6000803e3d6000fd5b506000806101000a81548173ffffffffffffffffffffffffffffffffffffffff021916908373ffffffffffffffffffffffffffffffffffffffff16021790555060008054906101000a900473ffffffffffffffffffffffffffffffffffffffff16600160006101000a81548173ffffffffffffffffffffffffffffffffffffffff021916908373ffffffffffffffffffffffffffffffffffffffff16021790555080600260006101000a81548173ffffffffffffffffffffffffffffffffffffffff021916908373ffffffffffffffffffffffffffffffffffffffff16021790555033600360006101000a81548173ffffffffffffffffffffffffffffffffffffffff021916908373ffffffffffffffffffffffffffffffffffffffff16021790555050620003a2565b82805482825590600052602060002090810192821562000248579160200282015b8281111562000247578251829060ff1690559160200191906001019062000225565b5b50905062000257919062000269565b5090565b610bb88062002ff083390190565b5b80821115620002845760008160009055506001016200026a565b5090565b600080fd5b600073ffffffffffffffffffffffffffffffffffffffff82169050919050565b6000620002ba826200028d565b9050919050565b620002cc81620002ad565b8114620002d857600080fd5b50565b600081519050620002ec81620002c1565b92915050565b6000602082840312156200030b576200030a62000288565b5b60006200031b84828501620002db565b91505092915050565b6000819050919050565b600067ffffffffffffffff82169050919050565b6000819050919050565b60006200036d62000367620003618462000324565b62000342565b6200032e565b9050919050565b6200037f816200034c565b82525050565b60006020820190506200039c600083018462000374565b92915050565b612c3e80620003b26000396000f3fe60806040526004361061007b5760003560e01c8063716cac961161004e578063716cac961461012857806384350e1d14610144578063a9b12c4c1461016f578063ad875aa61461019a5761007b565b8063151a2871146100805780633a9ac275146100a95780634a1db02b146100c0578063555d2940146100fd575b600080fd5b34801561008c57600080fd5b506100a760048036038101906100a29190611d13565b6101b1565b005b3480156100b557600080fd5b506100be610d7b565b005b3480156100cc57600080fd5b506100e760048036038101906100e29190611d40565b610e02565b6040516100f49190611d9b565b60405180910390f35b34801561010957600080fd5b50610112610e31565b60405161011f9190611df7565b60405180910390f35b610142600480360381019061013d9190611f6b565b610e55565b005b34801561015057600080fd5b5061015961115e565b6040516101669190612072565b60405180910390f35b34801561017b57600080fd5b506101846111b6565b60405161019191906120a3565b60405180910390f35b3480156101a657600080fd5b506101af6111bc565b005b6005600762015180426101c4919061211c565b6101ce919061214d565b148061020257506002600762015180426101e8919061211c565b6101f2919061214d565b14801561020157506127104710155b5b610241576040517f08c379a000000000000000000000000000000000000000000000000000000000815260040161023890612201565b60405180910390fd5b6000151560066000600260009054906101000a900473ffffffffffffffffffffffffffffffffffffffff1673ffffffffffffffffffffffffffffffffffffffff1663127f0b3f6040518163ffffffff1660e01b8152600401602060405180830381865afa1580156102b6573d6000803e3d6000fd5b505050506040513d601f19601f820116820180604052508101906102da9190612236565b8152602001908152602001600020600083815260200190815260200160002060009054906101000a900460ff16151514610349576040517f08c379a0000000000000000000000000000000000000000000000000000000008152600401610340906122af565b60405180910390fd5b600360149054906101000a900460ff16610398576040517f08c379a000000000000000000000000000000000000000000000000000000000815260040161038f90612341565b60405180910390fd5b6000600260009054906101000a900473ffffffffffffffffffffffffffffffffffffffff1673ffffffffffffffffffffffffffffffffffffffff1663e84b9b99600260009054906101000a900473ffffffffffffffffffffffffffffffffffffffff1673ffffffffffffffffffffffffffffffffffffffff1663127f0b3f6040518163ffffffff1660e01b8152600401602060405180830381865afa158015610445573d6000803e3d6000fd5b505050506040513d601f19601f820116820180604052508101906104699190612236565b846040518363ffffffff1660e01b8152600401610487929190612361565b600060405180830381865afa1580156104a4573d6000803e3d6000fd5b505050506040513d6000823e3d601f19601f820116820180604052508101906104cd9190612421565b90506000805b82518110156105625760005b600581101561054e57600581815481106104fc576104fb61246a565b5b906000526020600020015484838151811061051a5761051961246a565b5b6020026020010151141561053b57828061053390612499565b93505061054e565b808061054690612499565b9150506104df565b50808061055a90612499565b9150506104d3565b50600481141561090657600260009054906101000a900473ffffffffffffffffffffffffffffffffffffffff1673ffffffffffffffffffffffffffffffffffffffff1663e77eded3600260009054906101000a900473ffffffffffffffffffffffffffffffffffffffff1673ffffffffffffffffffffffffffffffffffffffff1663127f0b3f6040518163ffffffff1660e01b8152600401602060405180830381865afa158015610617573d6000803e3d6000fd5b505050506040513d601f19601f8201168201806040525081019061063b9190612236565b600260009054906101000a900473ffffffffffffffffffffffffffffffffffffffff1673ffffffffffffffffffffffffffffffffffffffff1663b7821c736040518163ffffffff1660e01b8152600401602060405180830381865afa1580156106a8573d6000803e3d6000fd5b505050506040513d601f19601f820116820180604052508101906106cc9190612236565b600260009054906101000a900473ffffffffffffffffffffffffffffffffffffffff1673ffffffffffffffffffffffffffffffffffffffff1663a426e4c8600260009054906101000a900473ffffffffffffffffffffffffffffffffffffffff1673ffffffffffffffffffffffffffffffffffffffff1663127f0b3f6040518163ffffffff1660e01b8152600401602060405180830381865afa158015610777573d6000803e3d6000fd5b505050506040513d601f19601f8201168201806040525081019061079b9190612236565b896040518363ffffffff1660e01b81526004016107b9929190612361565b600060405180830381865afa1580156107d6573d6000803e3d6000fd5b505050506040513d6000823e3d601f19601f820116820180604052508101906107ff9190612598565b602001516040518463ffffffff1660e01b8152600401610821939291906125e1565b600060405180830381600087803b15801561083b57600080fd5b505af115801561084f573d6000803e3d6000fd5b50505050600260009054906101000a900473ffffffffffffffffffffffffffffffffffffffff1673ffffffffffffffffffffffffffffffffffffffff1663ad00b0336040518163ffffffff1660e01b8152600401600060405180830381600087803b1580156108bd57600080fd5b505af11580156108d1573d6000803e3d6000fd5b50505050600860009054906101000a900460ff16610905576001600860006101000a81548160ff0219169083151502179055505b5b6005811415610ca957600260009054906101000a900473ffffffffffffffffffffffffffffffffffffffff1673ffffffffffffffffffffffffffffffffffffffff1663818db388600260009054906101000a900473ffffffffffffffffffffffffffffffffffffffff1673ffffffffffffffffffffffffffffffffffffffff1663127f0b3f6040518163ffffffff1660e01b8152600401602060405180830381865afa1580156109ba573d6000803e3d6000fd5b505050506040513d601f19601f820116820180604052508101906109de9190612236565b600260009054906101000a900473ffffffffffffffffffffffffffffffffffffffff1673ffffffffffffffffffffffffffffffffffffffff1663b7821c736040518163ffffffff1660e01b8152600401602060405180830381865afa158015610a4b573d6000803e3d6000fd5b505050506040513d601f19601f82011682018060405250810190610a6f9190612236565b600260009054906101000a900473ffffffffffffffffffffffffffffffffffffffff1673ffffffffffffffffffffffffffffffffffffffff1663a426e4c8600260009054906101000a900473ffffffffffffffffffffffffffffffffffffffff1673ffffffffffffffffffffffffffffffffffffffff1663127f0b3f6040518163ffffffff1660e01b8152600401602060405180830381865afa158015610b1a573d6000803e3d6000fd5b505050506040513d601f19601f82011682018060405250810190610b3e9190612236565b896040518363ffffffff1660e01b8152600401610b5c929190612361565b600060405180830381865afa158015610b79573d6000803e3d6000fd5b505050506040513d6000823e3d601f19601f82011682018060405250810190610ba29190612598565b602001516040518463ffffffff1660e01b8152600401610bc4939291906125e1565b600060405180830381600087803b158015610bde57600080fd5b505af1158015610bf2573d6000803e3d6000fd5b50505050600260009054906101000a900473ffffffffffffffffffffffffffffffffffffffff1673ffffffffffffffffffffffffffffffffffffffff16631801e1166040518163ffffffff1660e01b8152600401600060405180830381600087803b158015610c6057600080fd5b505af1158015610c74573d6000803e3d6000fd5b50505050600860009054906101000a900460ff16610ca8576001600860006101000a81548160ff0219169083151502179055505b5b600160066000600260009054906101000a900473ffffffffffffffffffffffffffffffffffffffff1673ffffffffffffffffffffffffffffffffffffffff1663127f0b3f6040518163ffffffff1660e01b8152600401602060405180830381865afa158015610d1c573d6000803e3d6000fd5b505050506040513d601f19601f82011682018060405250810190610d409190612236565b8152602001908152602001600020600085815260200190815260200160002060006101000a81548160ff021916908315150217905550505050565b607860045442610d8b9190612618565b118015610da65750610e1060045442610da49190612618565b105b610de5576040517f08c379a0000000000000000000000000000000000000000000000000000000008152600401610ddc906126be565b60405180910390fd5b6001600360146101000a81548160ff021916908315150217905550565b60066020528160005260406000206020528060005260406000206000915091509054906101000a900460ff1681565b60008054906101000a900473ffffffffffffffffffffffffffffffffffffffff1681565b60058151101580610e685750600a815111155b610ea7576040517f08c379a0000000000000000000000000000000000000000000000000000000008152600401610e9e90612750565b60405180910390fd5b66071afd498d0000600260048351610ebf9190612618565b610ec991906128b0565b610ed391906128fb565b341015610f15576040517f08c379a0000000000000000000000000000000000000000000000000000000008152600401610f0c906129c7565b60405180910390fd5b600560076201518042610f28919061211c565b610f32919061214d565b14158015610f5b5750600260076201518042610f4e919061211c565b610f58919061214d565b14155b610f9a576040517f08c379a0000000000000000000000000000000000000000000000000000000008152600401610f9190612a7f565b60405180910390fd5b600360149054906101000a900460ff161561100457600860009054906101000a900460ff1615610fe857610fcc611255565b6000600860006101000a81548160ff0219169083151502179055505b6000600360146101000a81548160ff0219169083151502179055505b61100d81611b78565b600260009054906101000a900473ffffffffffffffffffffffffffffffffffffffff1673ffffffffffffffffffffffffffffffffffffffff16632d2d45788233426040518463ffffffff1660e01b815260040161106c93929190612a9f565b600060405180830381600087803b15801561108657600080fd5b505af115801561109a573d6000803e3d6000fd5b50505050600260009054906101000a900473ffffffffffffffffffffffffffffffffffffffff1673ffffffffffffffffffffffffffffffffffffffff166357d32e2c6040518163ffffffff1660e01b8152600401600060405180830381600087803b15801561110857600080fd5b505af115801561111c573d6000803e3d6000fd5b505050507f3f3ce808a956238f6a4663d0dd2685bfc2557b4399f220d215ce17153f9aff2781334260405161115393929190612a9f565b60405180910390a150565b606060058054806020026020016040519081016040528092919081815260200182805480156111ac57602002820191906000526020600020905b815481526020019060010190808311611198575b5050505050905090565b60045481565b6002600762015180426111cf919061211c565b6111d9919061214d565b148061120d57506003600762015180426111f3919061211c565b6111fd919061214d565b14801561120c57506127104710155b5b61124c576040517f08c379a000000000000000000000000000000000000000000000000000000000815260040161124390612b4f565b60405180910390fd5b42600481905550565b60006402540be400476112689190612618565b90506000606482611279919061211c565b9050600360009054906101000a900473ffffffffffffffffffffffffffffffffffffffff1673ffffffffffffffffffffffffffffffffffffffff166108fc829081150290604051600060405180830381858888f193505050501580156112e3573d6000803e3d6000fd5b5080826112f09190612618565b91506000600260009054906101000a900473ffffffffffffffffffffffffffffffffffffffff1673ffffffffffffffffffffffffffffffffffffffff1663b7821c736040518163ffffffff1660e01b8152600401602060405180830381865afa158015611361573d6000803e3d6000fd5b505050506040513d601f19601f820116820180604052508101906113859190612236565b9050600081111561154d5760008160146064866113a2919061211c565b6113ac91906128fb565b6113b6919061211c565b905060005b8281101561154a57600260009054906101000a900473ffffffffffffffffffffffffffffffffffffffff1673ffffffffffffffffffffffffffffffffffffffff1663aad3623a600260009054906101000a900473ffffffffffffffffffffffffffffffffffffffff1673ffffffffffffffffffffffffffffffffffffffff1663127f0b3f6040518163ffffffff1660e01b8152600401602060405180830381865afa15801561146e573d6000803e3d6000fd5b505050506040513d601f19601f820116820180604052508101906114929190612236565b836040518363ffffffff1660e01b81526004016114b0929190612361565b602060405180830381865afa1580156114cd573d6000803e3d6000fd5b505050506040513d601f19601f820116820180604052508101906114f19190612b6f565b73ffffffffffffffffffffffffffffffffffffffff166108fc839081150290604051600060405180830381858888f19350505050158015611536573d6000803e3d6000fd5b50808061154290612499565b9150506113bb565b50505b6000600260009054906101000a900473ffffffffffffffffffffffffffffffffffffffff1673ffffffffffffffffffffffffffffffffffffffff16635781880b6040518163ffffffff1660e01b8152600401602060405180830381865afa1580156115bc573d6000803e3d6000fd5b505050506040513d601f19601f820116820180604052508101906115e09190612236565b905060008111156117a0576000816402540be400476115ff9190612618565b611609919061211c565b905060005b8281101561179d57600260009054906101000a900473ffffffffffffffffffffffffffffffffffffffff1673ffffffffffffffffffffffffffffffffffffffff166363e182bd600260009054906101000a900473ffffffffffffffffffffffffffffffffffffffff1673ffffffffffffffffffffffffffffffffffffffff1663127f0b3f6040518163ffffffff1660e01b8152600401602060405180830381865afa1580156116c1573d6000803e3d6000fd5b505050506040513d601f19601f820116820180604052508101906116e59190612236565b836040518363ffffffff1660e01b8152600401611703929190612361565b602060405180830381865afa158015611720573d6000803e3d6000fd5b505050506040513d601f19601f820116820180604052508101906117449190612b6f565b73ffffffffffffffffffffffffffffffffffffffff166108fc839081150290604051600060405180830381858888f19350505050158015611789573d6000803e3d6000fd5b50808061179590612499565b91505061160e565b50505b600260009054906101000a900473ffffffffffffffffffffffffffffffffffffffff1673ffffffffffffffffffffffffffffffffffffffff16632457219c600260009054906101000a900473ffffffffffffffffffffffffffffffffffffffff1673ffffffffffffffffffffffffffffffffffffffff1663127f0b3f6040518163ffffffff1660e01b8152600401602060405180830381865afa15801561184b573d6000803e3d6000fd5b505050506040513d601f19601f8201168201806040525081019061186f9190612236565b600260009054906101000a900473ffffffffffffffffffffffffffffffffffffffff1673ffffffffffffffffffffffffffffffffffffffff1663cfbd900f6040518163ffffffff1660e01b8152600401602060405180830381865afa1580156118dc573d6000803e3d6000fd5b505050506040513d601f19601f820116820180604052508101906119009190612236565b6040518363ffffffff1660e01b815260040161191d929190612361565b600060405180830381600087803b15801561193757600080fd5b505af115801561194b573d6000803e3d6000fd5b50505050600260009054906101000a900473ffffffffffffffffffffffffffffffffffffffff1673ffffffffffffffffffffffffffffffffffffffff1663489d97d86040518163ffffffff1660e01b8152600401600060405180830381600087803b1580156119b957600080fd5b505af11580156119cd573d6000803e3d6000fd5b50505050600260009054906101000a900473ffffffffffffffffffffffffffffffffffffffff1673ffffffffffffffffffffffffffffffffffffffff1663a411ef696040518163ffffffff1660e01b8152600401600060405180830381600087803b158015611a3b57600080fd5b505af1158015611a4f573d6000803e3d6000fd5b50505050600260009054906101000a900473ffffffffffffffffffffffffffffffffffffffff1673ffffffffffffffffffffffffffffffffffffffff16633b8e3c906040518163ffffffff1660e01b8152600401600060405180830381600087803b158015611abd57600080fd5b505af1158015611ad1573d6000803e3d6000fd5b50505050600260009054906101000a900473ffffffffffffffffffffffffffffffffffffffff1673ffffffffffffffffffffffffffffffffffffffff1663a32605926040518163ffffffff1660e01b8152600401600060405180830381600087803b158015611b3f57600080fd5b505af1158015611b53573d6000803e3d6000fd5b505050506000600860006101000a81548160ff02191690831515021790555050505050565b60005b8151811015611c5f576001151560076000848481518110611b9f57611b9e61246a565b5b6020026020010151815260200190815260200160002060009054906101000a900460ff1615151415611c06576040517f08c379a0000000000000000000000000000000000000000000000000000000008152600401611bfd90612be8565b60405180910390fd5b600160076000848481518110611c1f57611c1e61246a565b5b6020026020010151815260200190815260200160002060006101000a81548160ff0219169083151502179055508080611c5790612499565b915050611b7b565b5060005b8151811015611cc557600060076000848481518110611c8557611c8461246a565b5b6020026020010151815260200190815260200160002060006101000a81548160ff0219169083151502179055508080611cbd90612499565b915050611c63565b5050565b6000604051905090565b600080fd5b600080fd5b6000819050919050565b611cf081611cdd565b8114611cfb57600080fd5b50565b600081359050611d0d81611ce7565b92915050565b600060208284031215611d2957611d28611cd3565b5b6000611d3784828501611cfe565b91505092915050565b60008060408385031215611d5757611d56611cd3565b5b6000611d6585828601611cfe565b9250506020611d7685828601611cfe565b9150509250929050565b60008115159050919050565b611d9581611d80565b82525050565b6000602082019050611db06000830184611d8c565b92915050565b600073ffffffffffffffffffffffffffffffffffffffff82169050919050565b6000611de182611db6565b9050919050565b611df181611dd6565b82525050565b6000602082019050611e0c6000830184611de8565b92915050565b600080fd5b6000601f19601f8301169050919050565b7f4e487b7100000000000000000000000000000000000000000000000000000000600052604160045260246000fd5b611e6082611e17565b810181811067ffffffffffffffff82111715611e7f57611e7e611e28565b5b80604052505050565b6000611e92611cc9565b9050611e9e8282611e57565b919050565b600067ffffffffffffffff821115611ebe57611ebd611e28565b5b602082029050602081019050919050565b600080fd5b6000611ee7611ee284611ea3565b611e88565b90508083825260208201905060208402830185811115611f0a57611f09611ecf565b5b835b81811015611f335780611f1f8882611cfe565b845260208401935050602081019050611f0c565b5050509392505050565b600082601f830112611f5257611f51611e12565b5b8135611f62848260208601611ed4565b91505092915050565b600060208284031215611f8157611f80611cd3565b5b600082013567ffffffffffffffff811115611f9f57611f9e611cd8565b5b611fab84828501611f3d565b91505092915050565b600081519050919050565b600082825260208201905092915050565b6000819050602082019050919050565b611fe981611cdd565b82525050565b6000611ffb8383611fe0565b60208301905092915050565b6000602082019050919050565b600061201f82611fb4565b6120298185611fbf565b935061203483611fd0565b8060005b8381101561206557815161204c8882611fef565b975061205783612007565b925050600181019050612038565b5085935050505092915050565b6000602082019050818103600083015261208c8184612014565b905092915050565b61209d81611cdd565b82525050565b60006020820190506120b86000830184612094565b92915050565b7f4e487b7100000000000000000000000000000000000000000000000000000000600052601260045260246000fd5b7f4e487b7100000000000000000000000000000000000000000000000000000000600052601160045260246000fd5b600061212782611cdd565b915061213283611cdd565b925082612142576121416120be565b5b828204905092915050565b600061215882611cdd565b915061216383611cdd565b925082612173576121726120be565b5b828206905092915050565b600082825260208201905092915050565b7f57696e6e696e67207469636b6574732063616e206e6f74206265207375626d6960008201527f74746564207269676874206e6f772e0000000000000000000000000000000000602082015250565b60006121eb602f8361217e565b91506121f68261218f565b604082019050919050565b6000602082019050818103600083015261221a816121de565b9050919050565b60008151905061223081611ce7565b92915050565b60006020828403121561224c5761224b611cd3565b5b600061225a84828501612221565b91505092915050565b7f5469636b657420616c7265616479207375626d69747465642e00000000000000600082015250565b600061229960198361217e565b91506122a482612263565b602082019050919050565b600060208201905081810360008301526122c88161228c565b9050919050565b7f43616e6e6f74207375626d6974207469636b657473206265666f72652067656e60008201527f65726174696e67206e65772077696e696e67206e756d626572732e0000000000602082015250565b600061232b603b8361217e565b9150612336826122cf565b604082019050919050565b6000602082019050818103600083015261235a8161231e565b9050919050565b60006040820190506123766000830185612094565b6123836020830184612094565b9392505050565b600061239d61239884611ea3565b611e88565b905080838252602082019050602084028301858111156123c0576123bf611ecf565b5b835b818110156123e957806123d58882612221565b8452602084019350506020810190506123c2565b5050509392505050565b600082601f83011261240857612407611e12565b5b815161241884826020860161238a565b91505092915050565b60006020828403121561243757612436611cd3565b5b600082015167ffffffffffffffff81111561245557612454611cd8565b5b612461848285016123f3565b91505092915050565b7f4e487b7100000000000000000000000000000000000000000000000000000000600052603260045260246000fd5b60006124a482611cdd565b91507fffffffffffffffffffffffffffffffffffffffffffffffffffffffffffffffff8214156124d7576124d66120ed565b5b600182019050919050565b600080fd5b600080fd5b6124f581611dd6565b811461250057600080fd5b50565b600081519050612512816124ec565b92915050565b60006060828403121561252e5761252d6124e2565b5b6125386060611e88565b9050600082015167ffffffffffffffff811115612558576125576124e7565b5b612564848285016123f3565b600083015250602061257884828501612503565b602083015250604061258c84828501612221565b60408301525092915050565b6000602082840312156125ae576125ad611cd3565b5b600082015167ffffffffffffffff8111156125cc576125cb611cd8565b5b6125d884828501612518565b91505092915050565b60006060820190506125f66000830186612094565b6126036020830185612094565b6126106040830184611de8565b949350505050565b600061262382611cdd565b915061262e83611cdd565b925082821015612641576126406120ed565b5b828203905092915050565b7f506c6561736520776169742061206c6974746c6520626974206d6f726520626560008201527f666f7265206163636573696e6720746865206e6577206e756d626572732e0000602082015250565b60006126a8603e8361217e565b91506126b38261264c565b604082019050919050565b600060208201905081810360008301526126d78161269b565b9050919050565b7f4d696e696d756d204e756d6265727320616c6c6f7765643a20352c204d61786960008201527f6d756d204e756d6265727320616c6c6f7765643a2031302e0000000000000000602082015250565b600061273a60388361217e565b9150612745826126de565b604082019050919050565b600060208201905081810360008301526127698161272d565b9050919050565b60008160011c9050919050565b6000808291508390505b60018511156127c7578086048111156127a3576127a26120ed565b5b60018516156127b25780820291505b80810290506127c085612770565b9450612787565b94509492505050565b6000826127e0576001905061289c565b816127ee576000905061289c565b8160018114612804576002811461280e5761283d565b600191505061289c565b60ff8411156128205761281f6120ed565b5b8360020a915084821115612837576128366120ed565b5b5061289c565b5060208310610133831016604e8410600b84101617156128725782820a90508381111561286d5761286c6120ed565b5b61289c565b61287f848484600161277d565b92509050818404811115612896576128956120ed565b5b81810290505b9392505050565b600060ff82169050919050565b60006128bb82611cdd565b91506128c6836128a3565b92506128f37fffffffffffffffffffffffffffffffffffffffffffffffffffffffffffffffff84846127d0565b905092915050565b600061290682611cdd565b915061291183611cdd565b9250817fffffffffffffffffffffffffffffffffffffffffffffffffffffffffffffffff048311821515161561294a576129496120ed565b5b828202905092915050565b7f6d73672e76616c756520646f65736e2774206d61746368207469636b6574207060008201527f726963652e000000000000000000000000000000000000000000000000000000602082015250565b60006129b160258361217e565b91506129bc82612955565b604082019050919050565b600060208201905081810360008301526129e0816129a4565b9050919050565b7f5469636b6574732063616e206e6f7420626520627579676874207768696c652060008201527f746865206c6f747465727920697320696e20636c61696d20726577617264732060208201527f73746174652e0000000000000000000000000000000000000000000000000000604082015250565b6000612a6960468361217e565b9150612a74826129e7565b606082019050919050565b60006020820190508181036000830152612a9881612a5c565b9050919050565b60006060820190508181036000830152612ab98186612014565b9050612ac86020830185611de8565b612ad56040830184612094565b949350505050565b7f596f752063616e6e6f742072657175657374206e6577206e756d62657273207260008201527f69676874206e6f772e0000000000000000000000000000000000000000000000602082015250565b6000612b3960298361217e565b9150612b4482612add565b604082019050919050565b60006020820190508181036000830152612b6881612b2c565b9050919050565b600060208284031215612b8557612b84611cd3565b5b6000612b9384828501612503565b91505092915050565b7f4475626c696361746564204e756d626572730000000000000000000000000000600082015250565b6000612bd260128361217e565b9150612bdd82612b9c565b602082019050919050565b60006020820190508181036000830152612c0181612bc5565b905091905056fea2646970667358221220238c6f286574172ae14fd13ff75dfc95234d007a4814af7ed7e03a23e238307764736f6c634300080a003360a0604052736168499c0cffcacd319c818142124b7a15e857ab600160006101000a81548173ffffffffffffffffffffffffffffffffffffffff021916908373ffffffffffffffffffffffffffffffffffffffff1602179055507fd89b2bf150e3b9e13446986e571fb9cab24b13cea0a43ea20a6049a85cc807cc60001b600255620249f0600360006101000a81548163ffffffff021916908363ffffffff16021790555060038060046101000a81548161ffff021916908361ffff1602179055506005600360066101000a81548163ffffffff021916908363ffffffff1602179055503480156100ef57600080fd5b50604051610bb8380380610bb883398181016040528101906101119190610280565b600160009054906101000a900473ffffffffffffffffffffffffffffffffffffffff168073ffffffffffffffffffffffffffffffffffffffff1660808173ffffffffffffffffffffffffffffffffffffffff168152505050600160009054906101000a900473ffffffffffffffffffffffffffffffffffffffff166000806101000a81548173ffffffffffffffffffffffffffffffffffffffff021916908373ffffffffffffffffffffffffffffffffffffffff16021790555033600660006101000a81548173ffffffffffffffffffffffffffffffffffffffff021916908373ffffffffffffffffffffffffffffffffffffffff16021790555080600060146101000a81548167ffffffffffffffff021916908367ffffffffffffffff160217905550506102ad565b600080fd5b600067ffffffffffffffff82169050919050565b61025d81610240565b811461026857600080fd5b50565b60008151905061027a81610254565b92915050565b6000602082840312156102965761029561023b565b5b60006102a48482850161026b565b91505092915050565b6080516108ea6102ce6000396000818160f0015261014401526108ea6000f3fe608060405234801561001057600080fd5b50600436106100575760003560e01c80631fe543e31461005c578063e0c8628914610078578063e11381b214610082578063e89e106a146100a0578063f6eaffc8146100be575b600080fd5b610076600480360381019061007191906105aa565b6100ee565b005b6100806101ae565b005b61008a610300565b60405161009791906106c4565b60405180910390f35b6100a8610358565b6040516100b591906106f5565b60405180910390f35b6100d860048036038101906100d39190610710565b61035e565b6040516100e591906106f5565b60405180910390f35b7f000000000000000000000000000000000000000000000000000000000000000073ffffffffffffffffffffffffffffffffffffffff163373ffffffffffffffffffffffffffffffffffffffff16146101a057337f00000000000000000000000000000000000000000000000000000000000000006040517f1cf993f400000000000000000000000000000000000000000000000000000000815260040161019792919061077e565b60405180910390fd5b6101aa8282610382565b5050565b600660009054906101000a900473ffffffffffffffffffffffffffffffffffffffff1673ffffffffffffffffffffffffffffffffffffffff163373ffffffffffffffffffffffffffffffffffffffff161461020857600080fd5b60008054906101000a900473ffffffffffffffffffffffffffffffffffffffff1673ffffffffffffffffffffffffffffffffffffffff16635d3b1d30600254600060149054906101000a900467ffffffffffffffff16600360049054906101000a900461ffff16600360009054906101000a900463ffffffff16600360069054906101000a900463ffffffff166040518663ffffffff1660e01b81526004016102b595949392919061081f565b6020604051808303816000875af11580156102d4573d6000803e3d6000fd5b505050506040513d601f19601f820116820180604052508101906102f89190610887565b600581905550565b6060600480548060200260200160405190810160405280929190818152602001828054801561034e57602002820191906000526020600020905b81548152602001906001019080831161033a575b5050505050905090565b60055481565b6004818154811061036e57600080fd5b906000526020600020016000915090505481565b806004908051906020019061039892919061039d565b505050565b8280548282559060005260206000209081019282156103d9579160200282015b828111156103d85782518255916020019190600101906103bd565b5b5090506103e691906103ea565b5090565b5b808211156104035760008160009055506001016103eb565b5090565b6000604051905090565b600080fd5b600080fd5b6000819050919050565b61042e8161041b565b811461043957600080fd5b50565b60008135905061044b81610425565b92915050565b600080fd5b6000601f19601f8301169050919050565b7f4e487b7100000000000000000000000000000000000000000000000000000000600052604160045260246000fd5b61049f82610456565b810181811067ffffffffffffffff821117156104be576104bd610467565b5b80604052505050565b60006104d1610407565b90506104dd8282610496565b919050565b600067ffffffffffffffff8211156104fd576104fc610467565b5b602082029050602081019050919050565b600080fd5b6000610526610521846104e2565b6104c7565b905080838252602082019050602084028301858111156105495761054861050e565b5b835b81811015610572578061055e888261043c565b84526020840193505060208101905061054b565b5050509392505050565b600082601f83011261059157610590610451565b5b81356105a1848260208601610513565b91505092915050565b600080604083850312156105c1576105c0610411565b5b60006105cf8582860161043c565b925050602083013567ffffffffffffffff8111156105f0576105ef610416565b5b6105fc8582860161057c565b9150509250929050565b600081519050919050565b600082825260208201905092915050565b6000819050602082019050919050565b61063b8161041b565b82525050565b600061064d8383610632565b60208301905092915050565b6000602082019050919050565b600061067182610606565b61067b8185610611565b935061068683610622565b8060005b838110156106b757815161069e8882610641565b97506106a983610659565b92505060018101905061068a565b5085935050505092915050565b600060208201905081810360008301526106de8184610666565b905092915050565b6106ef8161041b565b82525050565b600060208201905061070a60008301846106e6565b92915050565b60006020828403121561072657610725610411565b5b60006107348482850161043c565b91505092915050565b600073ffffffffffffffffffffffffffffffffffffffff82169050919050565b60006107688261073d565b9050919050565b6107788161075d565b82525050565b6000604082019050610793600083018561076f565b6107a0602083018461076f565b9392505050565b6000819050919050565b6107ba816107a7565b82525050565b600067ffffffffffffffff82169050919050565b6107dd816107c0565b82525050565b600061ffff82169050919050565b6107fa816107e3565b82525050565b600063ffffffff82169050919050565b61081981610800565b82525050565b600060a08201905061083460008301886107b1565b61084160208301876107d4565b61084e60408301866107f1565b61085b6060830185610810565b6108686080830184610810565b9695505050505050565b60008151905061088181610425565b92915050565b60006020828403121561089d5761089c610411565b5b60006108ab84828501610872565b9150509291505056fea26469706673582212207df8565c883df7b9dae46c5c6675930236a0fe962bb803d4d8778b79bcab54e864736f6c634300080a0033",
  "linkReferences": {},
  "deployedLinkReferences": {}
}