{
  "_format": "hh-sol-artifact-1",
  "contractName": "LotteryStorage",
  "sourceName": "contracts/LotteryStorage.sol",
  "abi": [
    {
      "inputs": [],
      "stateMutability": "nonpayable",
      "type": "constructor"
    },
    {
      "inputs": [
        {
          "internalType": "uint256",
          "name": "_round",
          "type": "uint256"
        },
        {
          "internalType": "uint256",
          "name": "_count",
          "type": "uint256"
        },
        {
          "internalType": "address",
          "name": "_owner",
          "type": "address"
        }
      ],
      "name": "addFiveNumbersWinner",
      "outputs": [],
      "stateMutability": "nonpayable",
      "type": "function"
    },
    {
      "inputs": [
        {
          "internalType": "uint256",
          "name": "_round",
          "type": "uint256"
        },
        {
          "internalType": "uint256",
          "name": "_count",
          "type": "uint256"
        },
        {
          "internalType": "address",
          "name": "_owner",
          "type": "address"
        }
      ],
      "name": "addFourNumbersWinner",
      "outputs": [],
      "stateMutability": "nonpayable",
      "type": "function"
    },
    {
      "inputs": [
        {
          "internalType": "uint256[]",
          "name": "_ticketNumbers",
          "type": "uint256[]"
        },
        {
          "internalType": "address",
          "name": "_owner",
          "type": "address"
        },
        {
          "internalType": "uint256",
          "name": "_creationDate",
          "type": "uint256"
        }
      ],
      "name": "addUserTicket",
      "outputs": [],
      "stateMutability": "nonpayable",
      "type": "function"
    },
    {
      "inputs": [
        {
          "internalType": "uint256",
          "name": "",
          "type": "uint256"
        },
        {
          "internalType": "uint256",
          "name": "",
          "type": "uint256"
        }
      ],
      "name": "fiveNumberWinners",
      "outputs": [
        {
          "internalType": "address",
          "name": "",
          "type": "address"
        }
      ],
      "stateMutability": "view",
      "type": "function"
    },
    {
      "inputs": [],
      "name": "fiveNumberWinnersCount",
      "outputs": [
        {
          "internalType": "uint256",
          "name": "",
          "type": "uint256"
        }
      ],
      "stateMutability": "view",
      "type": "function"
    },
    {
      "inputs": [
        {
          "internalType": "uint256",
          "name": "",
          "type": "uint256"
        },
        {
          "internalType": "uint256",
          "name": "",
          "type": "uint256"
        }
      ],
      "name": "fourNumberWinners",
      "outputs": [
        {
          "internalType": "address",
          "name": "",
          "type": "address"
        }
      ],
      "stateMutability": "view",
      "type": "function"
    },
    {
      "inputs": [],
      "name": "fourNumberWinnersCount",
      "outputs": [
        {
          "internalType": "uint256",
          "name": "",
          "type": "uint256"
        }
      ],
      "stateMutability": "view",
      "type": "function"
    },
    {
      "inputs": [
        {
          "internalType": "uint256",
          "name": "_round",
          "type": "uint256"
        },
        {
          "internalType": "uint256",
          "name": "_ticket",
          "type": "uint256"
        }
      ],
      "name": "getTicket",
      "outputs": [
        {
          "components": [
            {
              "internalType": "uint256[]",
              "name": "ticketNumbers",
              "type": "uint256[]"
            },
            {
              "internalType": "address",
              "name": "owner",
              "type": "address"
            },
            {
              "internalType": "uint256",
              "name": "creationDate",
              "type": "uint256"
            }
          ],
          "internalType": "struct LotteryStorage.ticketInfo",
          "name": "",
          "type": "tuple"
        }
      ],
      "stateMutability": "view",
      "type": "function"
    },
    {
      "inputs": [
        {
          "internalType": "uint256",
          "name": "_round",
          "type": "uint256"
        },
        {
          "internalType": "uint256",
          "name": "_ticket",
          "type": "uint256"
        }
      ],
      "name": "getTicketNumbers",
      "outputs": [
        {
          "internalType": "uint256[]",
          "name": "",
          "type": "uint256[]"
        }
      ],
      "stateMutability": "view",
      "type": "function"
    },
    {
      "inputs": [],
      "name": "increaseFiveNumberWinnersCount",
      "outputs": [],
      "stateMutability": "nonpayable",
      "type": "function"
    },
    {
      "inputs": [],
      "name": "increaseFourNumberWinnersCount",
      "outputs": [],
      "stateMutability": "nonpayable",
      "type": "function"
    },
    {
      "inputs": [],
      "name": "increaseRoundCount",
      "outputs": [],
      "stateMutability": "nonpayable",
      "type": "function"
    },
    {
      "inputs": [],
      "name": "increaseTicketCount",
      "outputs": [],
      "stateMutability": "nonpayable",
      "type": "function"
    },
    {
      "inputs": [
        {
          "internalType": "address",
          "name": "_user",
          "type": "address"
        },
        {
          "internalType": "bool",
          "name": "_state",
          "type": "bool"
        }
      ],
      "name": "managePermittedUsers",
      "outputs": [],
      "stateMutability": "nonpayable",
      "type": "function"
    },
    {
      "inputs": [
        {
          "internalType": "address",
          "name": "",
          "type": "address"
        }
      ],
      "name": "permittedUsers",
      "outputs": [
        {
          "internalType": "bool",
          "name": "",
          "type": "bool"
        }
      ],
      "stateMutability": "view",
      "type": "function"
    },
    {
      "inputs": [],
      "name": "resetFiveNumberWinnersCount",
      "outputs": [],
      "stateMutability": "nonpayable",
      "type": "function"
    },
    {
      "inputs": [],
      "name": "resetFourNumberWinnersCount",
      "outputs": [],
      "stateMutability": "nonpayable",
      "type": "function"
    },
    {
      "inputs": [],
      "name": "resetTicketCount",
      "outputs": [],
      "stateMutability": "nonpayable",
      "type": "function"
    },
    {
      "inputs": [],
      "name": "roundCount",
      "outputs": [
        {
          "internalType": "uint256",
          "name": "",
          "type": "uint256"
        }
      ],
      "stateMutability": "view",
      "type": "function"
    },
    {
      "inputs": [
        {
          "internalType": "uint256",
          "name": "_round",
          "type": "uint256"
        },
        {
          "internalType": "uint256",
          "name": "_value",
          "type": "uint256"
        }
      ],
      "name": "setTicketsPerRound",
      "outputs": [],
      "stateMutability": "nonpayable",
      "type": "function"
    },
    {
      "inputs": [
        {
          "internalType": "uint256",
          "name": "",
          "type": "uint256"
        },
        {
          "internalType": "uint256",
          "name": "",
          "type": "uint256"
        }
      ],
      "name": "submittedWinningTickets",
      "outputs": [
        {
          "internalType": "bool",
          "name": "",
          "type": "bool"
        }
      ],
      "stateMutability": "view",
      "type": "function"
    },
    {
      "inputs": [],
      "name": "ticketCount",
      "outputs": [
        {
          "internalType": "uint256",
          "name": "",
          "type": "uint256"
        }
      ],
      "stateMutability": "view",
      "type": "function"
    },
    {
      "inputs": [
        {
          "internalType": "uint256",
          "name": "",
          "type": "uint256"
        }
      ],
      "name": "ticketsPerRound",
      "outputs": [
        {
          "internalType": "uint256",
          "name": "",
          "type": "uint256"
        }
      ],
      "stateMutability": "view",
      "type": "function"
    },
    {
      "inputs": [
        {
          "internalType": "uint256",
          "name": "",
          "type": "uint256"
        },
        {
          "internalType": "uint256",
          "name": "",
          "type": "uint256"
        }
      ],
      "name": "userTickets",
      "outputs": [
        {
          "internalType": "address",
          "name": "owner",
          "type": "address"
        },
        {
          "internalType": "uint256",
          "name": "creationDate",
          "type": "uint256"
        }
      ],
      "stateMutability": "view",
      "type": "function"
    }
  ],
  "bytecode": "0x60806040526001600255600060035534801561001a57600080fd5b50336000806101000a81548173ffffffffffffffffffffffffffffffffffffffff021916908373ffffffffffffffffffffffffffffffffffffffff16021790555060018060003373ffffffffffffffffffffffffffffffffffffffff1673ffffffffffffffffffffffffffffffffffffffff16815260200190815260200160002060006101000a81548160ff0219169083151502179055506118b5806100c16000396000f3fe608060405234801561001057600080fd5b50600436106101585760003560e01c8063818db388116100c3578063aad3623a1161007c578063aad3623a14610366578063ad00b03314610396578063b7821c73146103a0578063cfbd900f146103be578063e77eded3146103dc578063e84b9b99146103f857610158565b8063818db388146102a5578063836b0ce6146102c1578063a3260592146102f1578063a411ef69146102fb578063a426e4c814610305578063a97e31111461033557610158565b8063489d97d811610115578063489d97d8146101f75780634a1db02b146102015780635781880b1461023157806357d32e2c1461024f57806363e182bd146102595780636d8e9a781461028957610158565b80630f28202c1461015d578063127f0b3f1461018d5780631801e116146101ab5780632457219c146101b55780632d2d4578146101d15780633b8e3c90146101ed575b600080fd5b610177600480360381019061017291906111a3565b610428565b60405161018491906111eb565b60405180910390f35b610195610448565b6040516101a2919061121f565b60405180910390f35b6101b361044e565b005b6101cf60048036038101906101ca9190611266565b6104f8565b005b6101eb60048036038101906101e691906113ff565b6105a7565b005b6101f5610709565b005b6101ff6107a6565b005b61021b60048036038101906102169190611266565b610850565b60405161022891906111eb565b60405180910390f35b61023961087f565b604051610246919061121f565b60405180910390f35b610257610885565b005b610273600480360381019061026e9190611266565b61092f565b604051610280919061147d565b60405180910390f35b6102a3600480360381019061029e91906114c4565b610971565b005b6102bf60048036038101906102ba9190611504565b610a88565b005b6102db60048036038101906102d69190611557565b610b83565b6040516102e8919061121f565b60405180910390f35b6102f9610b9b565b005b610303610c38565b005b61031f600480360381019061031a9190611266565b610cd5565b60405161032c91906116a1565b60405180910390f35b61034f600480360381019061034a9190611266565b610dcc565b60405161035d9291906116c3565b60405180910390f35b610380600480360381019061037b9190611266565b610e1d565b60405161038d919061147d565b60405180910390f35b61039e610e5f565b005b6103a8610f09565b6040516103b5919061121f565b60405180910390f35b6103c6610f0f565b6040516103d3919061121f565b60405180910390f35b6103f660048036038101906103f19190611504565b610f15565b005b610412600480360381019061040d9190611266565b611010565b60405161041f919061175b565b60405180910390f35b60016020528060005260406000206000915054906101000a900460ff1681565b60025481565b60011515600160003373ffffffffffffffffffffffffffffffffffffffff1673ffffffffffffffffffffffffffffffffffffffff16815260200190815260200160002060009054906101000a900460ff161515146104e1576040517f08c379a00000000000000000000000000000000000000000000000000000000081526004016104d8906117da565b60405180910390fd5b60016005546104f09190611829565b600581905550565b60011515600160003373ffffffffffffffffffffffffffffffffffffffff1673ffffffffffffffffffffffffffffffffffffffff16815260200190815260200160002060009054906101000a900460ff1615151461058b576040517f08c379a0000000000000000000000000000000000000000000000000000000008152600401610582906117da565b60405180910390fd5b8060076000848152602001908152602001600020819055505050565b60011515600160003373ffffffffffffffffffffffffffffffffffffffff1673ffffffffffffffffffffffffffffffffffffffff16815260200190815260200160002060009054906101000a900460ff1615151461063a576040517f08c379a0000000000000000000000000000000000000000000000000000000008152600401610631906117da565b60405180910390fd5b60405180606001604052808481526020018373ffffffffffffffffffffffffffffffffffffffff168152602001828152506006600060025481526020019081526020016000206000600354815260200190815260200160002060008201518160000190805190602001906106af929190611090565b5060208201518160010160006101000a81548173ffffffffffffffffffffffffffffffffffffffff021916908373ffffffffffffffffffffffffffffffffffffffff16021790555060408201518160020155905050505050565b60011515600160003373ffffffffffffffffffffffffffffffffffffffff1673ffffffffffffffffffffffffffffffffffffffff16815260200190815260200160002060009054906101000a900460ff1615151461079c576040517f08c379a0000000000000000000000000000000000000000000000000000000008152600401610793906117da565b60405180910390fd5b6000600481905550565b60011515600160003373ffffffffffffffffffffffffffffffffffffffff1673ffffffffffffffffffffffffffffffffffffffff16815260200190815260200160002060009054906101000a900460ff16151514610839576040517f08c379a0000000000000000000000000000000000000000000000000000000008152600401610830906117da565b60405180910390fd5b60016002546108489190611829565b600281905550565b600a6020528160005260406000206020528060005260406000206000915091509054906101000a900460ff1681565b60055481565b60011515600160003373ffffffffffffffffffffffffffffffffffffffff1673ffffffffffffffffffffffffffffffffffffffff16815260200190815260200160002060009054906101000a900460ff16151514610918576040517f08c379a000000000000000000000000000000000000000000000000000000000815260040161090f906117da565b60405180910390fd5b60016003546109279190611829565b600381905550565b60096020528160005260406000206020528060005260406000206000915091509054906101000a900473ffffffffffffffffffffffffffffffffffffffff1681565b60008054906101000a900473ffffffffffffffffffffffffffffffffffffffff1673ffffffffffffffffffffffffffffffffffffffff163373ffffffffffffffffffffffffffffffffffffffff16146109c957600080fd5b8015610a2b5760018060008473ffffffffffffffffffffffffffffffffffffffff1673ffffffffffffffffffffffffffffffffffffffff16815260200190815260200160002060006101000a81548160ff021916908315150217905550610a84565b6000600160008473ffffffffffffffffffffffffffffffffffffffff1673ffffffffffffffffffffffffffffffffffffffff16815260200190815260200160002060006101000a81548160ff0219169083151502179055505b5050565b60011515600160003373ffffffffffffffffffffffffffffffffffffffff1673ffffffffffffffffffffffffffffffffffffffff16815260200190815260200160002060009054906101000a900460ff16151514610b1b576040517f08c379a0000000000000000000000000000000000000000000000000000000008152600401610b12906117da565b60405180910390fd5b8060096000858152602001908152602001600020600084815260200190815260200160002060006101000a81548173ffffffffffffffffffffffffffffffffffffffff021916908373ffffffffffffffffffffffffffffffffffffffff160217905550505050565b60076020528060005260406000206000915090505481565b60011515600160003373ffffffffffffffffffffffffffffffffffffffff1673ffffffffffffffffffffffffffffffffffffffff16815260200190815260200160002060009054906101000a900460ff16151514610c2e576040517f08c379a0000000000000000000000000000000000000000000000000000000008152600401610c25906117da565b60405180910390fd5b6000600581905550565b60011515600160003373ffffffffffffffffffffffffffffffffffffffff1673ffffffffffffffffffffffffffffffffffffffff16815260200190815260200160002060009054906101000a900460ff16151514610ccb576040517f08c379a0000000000000000000000000000000000000000000000000000000008152600401610cc2906117da565b60405180910390fd5b6000600381905550565b610cdd6110dd565b60066000848152602001908152602001600020600083815260200190815260200160002060405180606001604052908160008201805480602002602001604051908101604052809291908181526020018280548015610d5b57602002820191906000526020600020905b815481526020019060010190808311610d47575b505050505081526020016001820160009054906101000a900473ffffffffffffffffffffffffffffffffffffffff1673ffffffffffffffffffffffffffffffffffffffff1673ffffffffffffffffffffffffffffffffffffffff168152602001600282015481525050905092915050565b6006602052816000526040600020602052806000526040600020600091509150508060010160009054906101000a900473ffffffffffffffffffffffffffffffffffffffff16908060020154905082565b60086020528160005260406000206020528060005260406000206000915091509054906101000a900473ffffffffffffffffffffffffffffffffffffffff1681565b60011515600160003373ffffffffffffffffffffffffffffffffffffffff1673ffffffffffffffffffffffffffffffffffffffff16815260200190815260200160002060009054906101000a900460ff16151514610ef2576040517f08c379a0000000000000000000000000000000000000000000000000000000008152600401610ee9906117da565b60405180910390fd5b6001600454610f019190611829565b600481905550565b60045481565b60035481565b60011515600160003373ffffffffffffffffffffffffffffffffffffffff1673ffffffffffffffffffffffffffffffffffffffff16815260200190815260200160002060009054906101000a900460ff16151514610fa8576040517f08c379a0000000000000000000000000000000000000000000000000000000008152600401610f9f906117da565b60405180910390fd5b8060086000858152602001908152602001600020600084815260200190815260200160002060006101000a81548173ffffffffffffffffffffffffffffffffffffffff021916908373ffffffffffffffffffffffffffffffffffffffff160217905550505050565b606060066000848152602001908152602001600020600083815260200190815260200160002060000180548060200260200160405190810160405280929190818152602001828054801561108357602002820191906000526020600020905b81548152602001906001019080831161106f575b5050505050905092915050565b8280548282559060005260206000209081019282156110cc579160200282015b828111156110cb5782518255916020019190600101906110b0565b5b5090506110d99190611114565b5090565b604051806060016040528060608152602001600073ffffffffffffffffffffffffffffffffffffffff168152602001600081525090565b5b8082111561112d576000816000905550600101611115565b5090565b6000604051905090565b600080fd5b600080fd5b600073ffffffffffffffffffffffffffffffffffffffff82169050919050565b600061117082611145565b9050919050565b61118081611165565b811461118b57600080fd5b50565b60008135905061119d81611177565b92915050565b6000602082840312156111b9576111b861113b565b5b60006111c78482850161118e565b91505092915050565b60008115159050919050565b6111e5816111d0565b82525050565b600060208201905061120060008301846111dc565b92915050565b6000819050919050565b61121981611206565b82525050565b60006020820190506112346000830184611210565b92915050565b61124381611206565b811461124e57600080fd5b50565b6000813590506112608161123a565b92915050565b6000806040838503121561127d5761127c61113b565b5b600061128b85828601611251565b925050602061129c85828601611251565b9150509250929050565b600080fd5b6000601f19601f8301169050919050565b7f4e487b7100000000000000000000000000000000000000000000000000000000600052604160045260246000fd5b6112f4826112ab565b810181811067ffffffffffffffff82111715611313576113126112bc565b5b80604052505050565b6000611326611131565b905061133282826112eb565b919050565b600067ffffffffffffffff821115611352576113516112bc565b5b602082029050602081019050919050565b600080fd5b600061137b61137684611337565b61131c565b9050808382526020820190506020840283018581111561139e5761139d611363565b5b835b818110156113c757806113b38882611251565b8452602084019350506020810190506113a0565b5050509392505050565b600082601f8301126113e6576113e56112a6565b5b81356113f6848260208601611368565b91505092915050565b6000806000606084860312156114185761141761113b565b5b600084013567ffffffffffffffff81111561143657611435611140565b5b611442868287016113d1565b93505060206114538682870161118e565b925050604061146486828701611251565b9150509250925092565b61147781611165565b82525050565b6000602082019050611492600083018461146e565b92915050565b6114a1816111d0565b81146114ac57600080fd5b50565b6000813590506114be81611498565b92915050565b600080604083850312156114db576114da61113b565b5b60006114e98582860161118e565b92505060206114fa858286016114af565b9150509250929050565b60008060006060848603121561151d5761151c61113b565b5b600061152b86828701611251565b935050602061153c86828701611251565b925050604061154d8682870161118e565b9150509250925092565b60006020828403121561156d5761156c61113b565b5b600061157b84828501611251565b91505092915050565b600081519050919050565b600082825260208201905092915050565b6000819050602082019050919050565b6115b981611206565b82525050565b60006115cb83836115b0565b60208301905092915050565b6000602082019050919050565b60006115ef82611584565b6115f9818561158f565b9350611604836115a0565b8060005b8381101561163557815161161c88826115bf565b9750611627836115d7565b925050600181019050611608565b5085935050505092915050565b61164b81611165565b82525050565b6000606083016000830151848203600086015261166e82826115e4565b91505060208301516116836020860182611642565b50604083015161169660408601826115b0565b508091505092915050565b600060208201905081810360008301526116bb8184611651565b905092915050565b60006040820190506116d8600083018561146e565b6116e56020830184611210565b9392505050565b600082825260208201905092915050565b600061170882611584565b61171281856116ec565b935061171d836115a0565b8060005b8381101561174e57815161173588826115bf565b9750611740836115d7565b925050600181019050611721565b5085935050505092915050565b6000602082019050818103600083015261177581846116fd565b905092915050565b600082825260208201905092915050565b7f6d73672e73656e646572206e6f74207065726d69747465642e00000000000000600082015250565b60006117c460198361177d565b91506117cf8261178e565b602082019050919050565b600060208201905081810360008301526117f3816117b7565b9050919050565b7f4e487b7100000000000000000000000000000000000000000000000000000000600052601160045260246000fd5b600061183482611206565b915061183f83611206565b9250827fffffffffffffffffffffffffffffffffffffffffffffffffffffffffffffffff03821115611874576118736117fa565b5b82820190509291505056fea2646970667358221220b39e5a75e6bd55bdb65a412bc66d6d23e8f13d741edef6468662bc4475b1bcc464736f6c634300080a0033",
  "linkReferences": {},
  "deployedLinkReferences": {}
}