{
  "_format": "hh-sol-artifact-1",
  "contractName": "VRFv2Consumer",
  "sourceName": "contracts/VRFv2Consumer.sol",
  "abi": [
    {
      "inputs": [
        {
          "internalType": "uint64",
          "name": "subscriptionId",
          "type": "uint64"
        }
      ],
      "stateMutability": "nonpayable",
      "type": "constructor"
    },
    {
      "inputs": [
        {
          "internalType": "address",
          "name": "have",
          "type": "address"
        },
        {
          "internalType": "address",
          "name": "want",
          "type": "address"
        }
      ],
      "name": "OnlyCoordinatorCanFulfill",
      "type": "error"
    },
    {
      "inputs": [
        {
          "internalType": "uint256",
          "name": "requestId",
          "type": "uint256"
        },
        {
          "internalType": "uint256[]",
          "name": "randomWords",
          "type": "uint256[]"
        }
      ],
      "name": "rawFulfillRandomWords",
      "outputs": [],
      "stateMutability": "nonpayable",
      "type": "function"
    },
    {
      "inputs": [],
      "name": "requestRandomWords",
      "outputs": [],
      "stateMutability": "nonpayable",
      "type": "function"
    },
    {
      "inputs": [],
      "name": "returnNewResults",
      "outputs": [
        {
          "internalType": "uint256[]",
          "name": "",
          "type": "uint256[]"
        }
      ],
      "stateMutability": "view",
      "type": "function"
    },
    {
      "inputs": [
        {
          "internalType": "uint256",
          "name": "",
          "type": "uint256"
        }
      ],
      "name": "s_randomWords",
      "outputs": [
        {
          "internalType": "uint256",
          "name": "",
          "type": "uint256"
        }
      ],
      "stateMutability": "view",
      "type": "function"
    },
    {
      "inputs": [],
      "name": "s_requestId",
      "outputs": [
        {
          "internalType": "uint256",
          "name": "",
          "type": "uint256"
        }
      ],
      "stateMutability": "view",
      "type": "function"
    }
  ],
  "bytecode": "0x60a0604052736168499c0cffcacd319c818142124b7a15e857ab600160006101000a81548173ffffffffffffffffffffffffffffffffffffffff021916908373ffffffffffffffffffffffffffffffffffffffff1602179055507fd89b2bf150e3b9e13446986e571fb9cab24b13cea0a43ea20a6049a85cc807cc60001b600255620249f0600360006101000a81548163ffffffff021916908363ffffffff16021790555060038060046101000a81548161ffff021916908361ffff1602179055506005600360066101000a81548163ffffffff021916908363ffffffff1602179055503480156100ef57600080fd5b50604051610bb8380380610bb883398181016040528101906101119190610280565b600160009054906101000a900473ffffffffffffffffffffffffffffffffffffffff168073ffffffffffffffffffffffffffffffffffffffff1660808173ffffffffffffffffffffffffffffffffffffffff168152505050600160009054906101000a900473ffffffffffffffffffffffffffffffffffffffff166000806101000a81548173ffffffffffffffffffffffffffffffffffffffff021916908373ffffffffffffffffffffffffffffffffffffffff16021790555033600660006101000a81548173ffffffffffffffffffffffffffffffffffffffff021916908373ffffffffffffffffffffffffffffffffffffffff16021790555080600060146101000a81548167ffffffffffffffff021916908367ffffffffffffffff160217905550506102ad565b600080fd5b600067ffffffffffffffff82169050919050565b61025d81610240565b811461026857600080fd5b50565b60008151905061027a81610254565b92915050565b6000602082840312156102965761029561023b565b5b60006102a48482850161026b565b91505092915050565b6080516108ea6102ce6000396000818160f0015261014401526108ea6000f3fe608060405234801561001057600080fd5b50600436106100575760003560e01c80631fe543e31461005c578063e0c8628914610078578063e11381b214610082578063e89e106a146100a0578063f6eaffc8146100be575b600080fd5b610076600480360381019061007191906105aa565b6100ee565b005b6100806101ae565b005b61008a610300565b60405161009791906106c4565b60405180910390f35b6100a8610358565b6040516100b591906106f5565b60405180910390f35b6100d860048036038101906100d39190610710565b61035e565b6040516100e591906106f5565b60405180910390f35b7f000000000000000000000000000000000000000000000000000000000000000073ffffffffffffffffffffffffffffffffffffffff163373ffffffffffffffffffffffffffffffffffffffff16146101a057337f00000000000000000000000000000000000000000000000000000000000000006040517f1cf993f400000000000000000000000000000000000000000000000000000000815260040161019792919061077e565b60405180910390fd5b6101aa8282610382565b5050565b600660009054906101000a900473ffffffffffffffffffffffffffffffffffffffff1673ffffffffffffffffffffffffffffffffffffffff163373ffffffffffffffffffffffffffffffffffffffff161461020857600080fd5b60008054906101000a900473ffffffffffffffffffffffffffffffffffffffff1673ffffffffffffffffffffffffffffffffffffffff16635d3b1d30600254600060149054906101000a900467ffffffffffffffff16600360049054906101000a900461ffff16600360009054906101000a900463ffffffff16600360069054906101000a900463ffffffff166040518663ffffffff1660e01b81526004016102b595949392919061081f565b6020604051808303816000875af11580156102d4573d6000803e3d6000fd5b505050506040513d601f19601f820116820180604052508101906102f89190610887565b600581905550565b6060600480548060200260200160405190810160405280929190818152602001828054801561034e57602002820191906000526020600020905b81548152602001906001019080831161033a575b5050505050905090565b60055481565b6004818154811061036e57600080fd5b906000526020600020016000915090505481565b806004908051906020019061039892919061039d565b505050565b8280548282559060005260206000209081019282156103d9579160200282015b828111156103d85782518255916020019190600101906103bd565b5b5090506103e691906103ea565b5090565b5b808211156104035760008160009055506001016103eb565b5090565b6000604051905090565b600080fd5b600080fd5b6000819050919050565b61042e8161041b565b811461043957600080fd5b50565b60008135905061044b81610425565b92915050565b600080fd5b6000601f19601f8301169050919050565b7f4e487b7100000000000000000000000000000000000000000000000000000000600052604160045260246000fd5b61049f82610456565b810181811067ffffffffffffffff821117156104be576104bd610467565b5b80604052505050565b60006104d1610407565b90506104dd8282610496565b919050565b600067ffffffffffffffff8211156104fd576104fc610467565b5b602082029050602081019050919050565b600080fd5b6000610526610521846104e2565b6104c7565b905080838252602082019050602084028301858111156105495761054861050e565b5b835b81811015610572578061055e888261043c565b84526020840193505060208101905061054b565b5050509392505050565b600082601f83011261059157610590610451565b5b81356105a1848260208601610513565b91505092915050565b600080604083850312156105c1576105c0610411565b5b60006105cf8582860161043c565b925050602083013567ffffffffffffffff8111156105f0576105ef610416565b5b6105fc8582860161057c565b9150509250929050565b600081519050919050565b600082825260208201905092915050565b6000819050602082019050919050565b61063b8161041b565b82525050565b600061064d8383610632565b60208301905092915050565b6000602082019050919050565b600061067182610606565b61067b8185610611565b935061068683610622565b8060005b838110156106b757815161069e8882610641565b97506106a983610659565b92505060018101905061068a565b5085935050505092915050565b600060208201905081810360008301526106de8184610666565b905092915050565b6106ef8161041b565b82525050565b600060208201905061070a60008301846106e6565b92915050565b60006020828403121561072657610725610411565b5b60006107348482850161043c565b91505092915050565b600073ffffffffffffffffffffffffffffffffffffffff82169050919050565b60006107688261073d565b9050919050565b6107788161075d565b82525050565b6000604082019050610793600083018561076f565b6107a0602083018461076f565b9392505050565b6000819050919050565b6107ba816107a7565b82525050565b600067ffffffffffffffff82169050919050565b6107dd816107c0565b82525050565b600061ffff82169050919050565b6107fa816107e3565b82525050565b600063ffffffff82169050919050565b61081981610800565b82525050565b600060a08201905061083460008301886107b1565b61084160208301876107d4565b61084e60408301866107f1565b61085b6060830185610810565b6108686080830184610810565b9695505050505050565b60008151905061088181610425565b92915050565b60006020828403121561089d5761089c610411565b5b60006108ab84828501610872565b9150509291505056fea26469706673582212207df8565c883df7b9dae46c5c6675930236a0fe962bb803d4d8778b79bcab54e864736f6c634300080a0033",
  "linkReferences": {},
  "deployedLinkReferences": {}
}